{
  "contractName": "DepositStorage",
  "abi": [
    {
      "anonymous": false,
      "inputs": [
        {
          "indexed": false,
          "internalType": "address",
          "name": "from",
          "type": "address"
        },
        {
          "indexed": false,
          "internalType": "uint256",
          "name": "amount",
          "type": "uint256"
        },
        {
          "indexed": false,
          "internalType": "string",
          "name": "issueId",
          "type": "string"
        },
        {
          "indexed": false,
          "internalType": "uint256",
          "name": "depositId",
          "type": "uint256"
        }
      ],
      "name": "IssueDepositEvent",
      "type": "event"
    },
    {
      "anonymous": false,
      "inputs": [
        {
          "indexed": true,
          "internalType": "address",
          "name": "previousOwner",
          "type": "address"
        },
        {
          "indexed": true,
          "internalType": "address",
          "name": "newOwner",
          "type": "address"
        }
      ],
      "name": "OwnershipTransferred",
      "type": "event"
    },
    {
      "anonymous": false,
      "inputs": [
        {
          "indexed": false,
          "internalType": "uint256",
          "name": "depositId",
          "type": "uint256"
        }
      ],
      "name": "RefundIssueDepositEvent",
      "type": "event"
    },
    {
      "anonymous": false,
      "inputs": [
        {
          "indexed": false,
          "internalType": "uint256",
          "name": "depositId",
          "type": "uint256"
        }
      ],
      "name": "RefundUserDepositEvent",
      "type": "event"
    },
    {
      "anonymous": false,
      "inputs": [
        {
          "indexed": false,
          "internalType": "string",
          "name": "issueId",
          "type": "string"
        },
        {
          "indexed": false,
          "internalType": "address",
          "name": "govTokenAddress",
          "type": "address"
        }
      ],
      "name": "SetGovTokenForIssueEvent",
      "type": "event"
    },
    {
      "anonymous": false,
      "inputs": [
        {
          "indexed": false,
          "internalType": "address",
          "name": "from",
          "type": "address"
        },
        {
          "indexed": false,
          "internalType": "uint256",
          "name": "amount",
          "type": "uint256"
        },
        {
          "indexed": false,
          "internalType": "string",
          "name": "githubUserId",
          "type": "string"
        },
        {
          "indexed": false,
          "internalType": "uint256",
          "name": "depositId",
          "type": "uint256"
        }
      ],
      "name": "UserDepositEvent",
      "type": "event"
    },
    {
      "anonymous": false,
      "inputs": [
        {
          "indexed": false,
          "internalType": "string",
          "name": "issueId",
          "type": "string"
        }
      ],
      "name": "WithdrawIssueDepositsEvent",
      "type": "event"
    },
    {
      "anonymous": false,
      "inputs": [
        {
          "indexed": false,
          "internalType": "uint256",
          "name": "depositId",
          "type": "uint256"
        }
      ],
      "name": "WithdrawUserDepositEvent",
      "type": "event"
    },
    {
      "inputs": [
        {
          "internalType": "string",
          "name": "",
          "type": "string"
        }
      ],
      "name": "govTokenByIssueId",
      "outputs": [
        {
          "internalType": "contract OctobayGovToken",
          "name": "",
          "type": "address"
        }
      ],
      "stateMutability": "view",
      "type": "function"
    },
    {
      "inputs": [
        {
          "internalType": "string",
          "name": "",
          "type": "string"
        },
        {
          "internalType": "uint256",
          "name": "",
          "type": "uint256"
        }
      ],
      "name": "issueDepositIdsByIssueId",
      "outputs": [
        {
          "internalType": "uint256",
          "name": "",
          "type": "uint256"
        }
      ],
      "stateMutability": "view",
      "type": "function"
    },
    {
      "inputs": [
        {
          "internalType": "address",
          "name": "",
          "type": "address"
        },
        {
          "internalType": "uint256",
          "name": "",
          "type": "uint256"
        }
      ],
      "name": "issueDepositIdsBySender",
      "outputs": [
        {
          "internalType": "uint256",
          "name": "",
          "type": "uint256"
        }
      ],
      "stateMutability": "view",
      "type": "function"
    },
    {
      "inputs": [
        {
          "internalType": "uint256",
          "name": "",
          "type": "uint256"
        }
      ],
      "name": "issueDeposits",
      "outputs": [
        {
          "internalType": "address",
          "name": "from",
          "type": "address"
        },
        {
          "internalType": "uint256",
          "name": "amount",
          "type": "uint256"
        },
        {
          "internalType": "string",
          "name": "issueId",
          "type": "string"
        }
      ],
      "stateMutability": "view",
      "type": "function"
    },
    {
      "inputs": [
        {
          "internalType": "string",
          "name": "",
          "type": "string"
        }
      ],
      "name": "issueDepositsAmountByIssueId",
      "outputs": [
        {
          "internalType": "uint256",
          "name": "",
          "type": "uint256"
        }
      ],
      "stateMutability": "view",
      "type": "function"
    },
    {
      "inputs": [
        {
          "internalType": "string",
          "name": "",
          "type": "string"
        }
      ],
      "name": "issueStatusByIssueId",
      "outputs": [
        {
          "internalType": "enum DepositStorage.IssueStatus",
          "name": "",
          "type": "uint8"
        }
      ],
      "stateMutability": "view",
      "type": "function"
    },
    {
      "inputs": [],
      "name": "nextIssueDepositId",
      "outputs": [
        {
          "internalType": "uint256",
          "name": "",
          "type": "uint256"
        }
      ],
      "stateMutability": "view",
      "type": "function"
    },
    {
      "inputs": [],
      "name": "octobay",
      "outputs": [
        {
          "internalType": "address",
          "name": "",
          "type": "address"
        }
      ],
      "stateMutability": "view",
      "type": "function"
    },
    {
      "inputs": [],
      "name": "owner",
      "outputs": [
        {
          "internalType": "address",
          "name": "",
          "type": "address"
        }
      ],
      "stateMutability": "view",
      "type": "function"
    },
    {
      "inputs": [],
      "name": "renounceOwnership",
      "outputs": [],
      "stateMutability": "nonpayable",
      "type": "function"
    },
    {
      "inputs": [
        {
          "internalType": "address",
          "name": "_octobay",
          "type": "address"
        }
      ],
      "name": "setOctobay",
      "outputs": [],
      "stateMutability": "nonpayable",
      "type": "function"
    },
    {
      "inputs": [
        {
          "internalType": "address",
          "name": "newOwner",
          "type": "address"
        }
      ],
      "name": "transferOwnership",
      "outputs": [],
      "stateMutability": "nonpayable",
      "type": "function"
    },
    {
      "inputs": [
        {
          "internalType": "string",
          "name": "",
          "type": "string"
        }
      ],
      "name": "userClaimAmountByGithbUserId",
      "outputs": [
        {
          "internalType": "uint256",
          "name": "",
          "type": "uint256"
        }
      ],
      "stateMutability": "view",
      "type": "function"
    },
    {
      "inputs": [
        {
          "internalType": "string",
          "name": "",
          "type": "string"
        },
        {
          "internalType": "uint256",
          "name": "",
          "type": "uint256"
        }
      ],
      "name": "userDepositIdsByGithubUserId",
      "outputs": [
        {
          "internalType": "uint256",
          "name": "",
          "type": "uint256"
        }
      ],
      "stateMutability": "view",
      "type": "function"
    },
    {
      "inputs": [
        {
          "internalType": "address",
          "name": "",
          "type": "address"
        },
        {
          "internalType": "uint256",
          "name": "",
          "type": "uint256"
        }
      ],
      "name": "userDepositIdsBySender",
      "outputs": [
        {
          "internalType": "uint256",
          "name": "",
          "type": "uint256"
        }
      ],
      "stateMutability": "view",
      "type": "function"
    },
    {
      "inputs": [
        {
          "internalType": "uint256",
          "name": "",
          "type": "uint256"
        }
      ],
      "name": "userDeposits",
      "outputs": [
        {
          "internalType": "address",
          "name": "from",
          "type": "address"
        },
        {
          "internalType": "uint256",
          "name": "amount",
          "type": "uint256"
        },
        {
          "internalType": "string",
          "name": "githubUserId",
          "type": "string"
        }
      ],
      "stateMutability": "view",
      "type": "function"
    },
    {
      "inputs": [
        {
          "internalType": "string",
          "name": "_githubUserId",
          "type": "string"
        },
        {
          "internalType": "uint256",
          "name": "_amount",
          "type": "uint256"
        }
      ],
      "name": "deductGasFee",
      "outputs": [],
      "stateMutability": "nonpayable",
      "type": "function"
    },
    {
      "inputs": [
        {
          "internalType": "string",
          "name": "_githubUserId",
          "type": "string"
        },
        {
          "internalType": "address",
          "name": "msgSender",
          "type": "address"
        }
      ],
      "name": "depositEthForGithubUser",
      "outputs": [],
      "stateMutability": "payable",
      "type": "function"
    },
    {
      "inputs": [
        {
          "internalType": "uint256",
          "name": "_depositId",
          "type": "uint256"
        },
        {
          "internalType": "address",
          "name": "msgSender",
          "type": "address"
        }
      ],
      "name": "refundUserDeposit",
      "outputs": [],
      "stateMutability": "nonpayable",
      "type": "function"
    },
    {
      "inputs": [
        {
          "internalType": "uint256",
          "name": "_depositId",
          "type": "uint256"
        },
        {
          "internalType": "address",
          "name": "msgSender",
          "type": "address"
        },
        {
          "internalType": "string",
          "name": "_userId",
          "type": "string"
        }
      ],
      "name": "withdrawUserDeposit",
      "outputs": [],
      "stateMutability": "nonpayable",
      "type": "function"
    },
    {
      "inputs": [
        {
          "internalType": "string",
          "name": "_issueId",
          "type": "string"
        },
        {
          "internalType": "contract OctobayGovToken",
          "name": "_govToken",
          "type": "address"
        }
      ],
      "name": "setGovTokenForIssue",
      "outputs": [],
      "stateMutability": "nonpayable",
      "type": "function"
    },
    {
      "inputs": [
        {
          "internalType": "string",
          "name": "_issueId",
          "type": "string"
        },
        {
          "internalType": "address",
          "name": "msgSender",
          "type": "address"
        }
      ],
      "name": "depositEthForIssue",
      "outputs": [],
      "stateMutability": "payable",
      "type": "function"
    },
    {
      "inputs": [
        {
          "internalType": "uint256",
          "name": "_depositId",
          "type": "uint256"
        },
        {
          "internalType": "address",
          "name": "msgSender",
          "type": "address"
        }
      ],
      "name": "refundIssueDeposit",
      "outputs": [],
      "stateMutability": "nonpayable",
      "type": "function"
    },
    {
      "inputs": [
        {
          "internalType": "address",
          "name": "_payoutAddress",
          "type": "address"
        },
        {
          "internalType": "string",
          "name": "_issueId",
          "type": "string"
        }
      ],
      "name": "confirmWithdrawIssueDeposit",
      "outputs": [
        {
          "internalType": "uint256",
          "name": "",
          "type": "uint256"
        }
      ],
      "stateMutability": "nonpayable",
      "type": "function"
    }
  ],
  "bytecode": "0x60806040526000600355600060085534801561001a57600080fd5b506000610025610074565b600080546001600160a01b0319166001600160a01b0383169081178255604051929350917f8be0079c531659141344cd1fd0a4f28419497f9722a3daafe3b4186f6b6457e0908290a350610078565b3390565b611c46806100876000396000f3fe60806040526004361061014b5760003560e01c806398f5b302116100b6578063f16b41f41161006f578063f16b41f414610396578063f224f902146103b6578063f2fde38b146103d6578063f380e05c146103f6578063f63e8c7014610416578063f831eaa41461042b5761014b565b806398f5b302146102e15780639edc06ee14610301578063c7c614fa14610314578063d224784d14610334578063e14c375f14610363578063e54f54a9146103835761014b565b80636470175011610108578063647017501461022a5780636a6ab0e91461024a578063715018a614610277578063801d55fc1461028c57806386d0e609146102ac5780638da5cb5b146102cc5761014b565b806304405fa9146101505780630693f9611461018657806317c486f1146101a85780632512be93146101c8578063546075da146101e857806361e421d51461020a575b600080fd5b34801561015c57600080fd5b5061017061016b3660046116d3565b61044b565b60405161017d9190611bc6565b60405180910390f35b34801561019257600080fd5b5061019b610488565b60405161017d919061187b565b3480156101b457600080fd5b506101706101c3366004611699565b610497565b3480156101d457600080fd5b5061019b6101e3366004611699565b6104b4565b3480156101f457600080fd5b50610208610203366004611650565b6104da565b005b34801561021657600080fd5b506101706102253660046115d1565b61057c565b34801561023657600080fd5b506101706102453660046115d1565b610595565b34801561025657600080fd5b5061026a610265366004611699565b6105ae565b60405161017d9190611912565b34801561028357600080fd5b506102086105ce565b34801561029857600080fd5b506101706102a736600461157f565b61064d565b3480156102b857600080fd5b506102086102c73660046115fc565b61078b565b3480156102d857600080fd5b5061019b610885565b3480156102ed57600080fd5b506102086102fc36600461172d565b610894565b61020861030f3660046115fc565b61093c565b34801561032057600080fd5b5061020861032f36600461172d565b610b02565b34801561034057600080fd5b5061035461034f366004611715565b610ca8565b60405161017d939291906118c9565b34801561036f57600080fd5b5061020861037e36600461175c565b610d5e565b6102086103913660046115fc565b610e2b565b3480156103a257600080fd5b506103546103b1366004611715565b611040565b3480156103c257600080fd5b506101706103d1366004611699565b6110c1565b3480156103e257600080fd5b506102086103f136600461155c565b6110de565b34801561040257600080fd5b5061020861041136600461155c565b611194565b34801561042257600080fd5b506101706111eb565b34801561043757600080fd5b506101706104463660046116d3565b6111f1565b8151602081840181018051600982529282019185019190912091905280548290811061047357fe5b90600052602060002001600091509150505481565b6001546001600160a01b031681565b8051602081830181018051600b8252928201919093012091525481565b8051602081830181018051600d825292820191909301209152546001600160a01b031681565b6001546001600160a01b0316331461050d5760405162461bcd60e51b8152600401610504906119b6565b60405180910390fd5b80600284846040516105209291906117df565b908152602001604051809103902054101561054d5760405162461bcd60e51b815260040161050490611a9a565b80600284846040516105609291906117df565b9081526040519081900360200190208054919091039055505050565b600a602052816000526040600020818154811061047357fe5b6006602052816000526040600020818154811061047357fe5b8051602081830181018051600c8252928201919093012091525460ff1681565b6105d6611219565b6000546001600160a01b039081169116146106035760405162461bcd60e51b815260040161050490611ad1565b600080546040516001600160a01b03909116907f8be0079c531659141344cd1fd0a4f28419497f9722a3daafe3b4186f6b6457e0908390a3600080546001600160a01b0319169055565b6001546000906001600160a01b0316331461067a5760405162461bcd60e51b8152600401610504906119b6565b6001600160a01b03841661068d57600080fd5b6000600b84846040516106a19291906117df565b90815260200160405180910390205490506000600b85856040516106c69291906117df565b9081526020016040518091039020819055506001600c85856040516106ec9291906117df565b908152604051908190036020019020805460ff19166001838181111561070e57fe5b02179055507fccf73352d4715bc502808f9e0b1bceb074c2a8b5ae408cf2597eacb2814bf6b38484604051610744929190611926565b60405180910390a16040516001600160a01b0386169082156108fc029083906000818181858888f19350505050158015610782573d6000803e3d6000fd5b50949350505050565b6001546001600160a01b031633146107b55760405162461bcd60e51b8152600401610504906119b6565b6000600c84846040516107c99291906117df565b9081526040519081900360200190205460ff1660018111156107e757fe5b146108045760405162461bcd60e51b815260040161050490611b6e565b80600d84846040516108179291906117df565b90815260405190819003602001812080546001600160a01b03939093166001600160a01b0319909316929092179091557f525f8c173738984cd551a66abb94eecb7c4ef46228e23a770bdc374e170f2112906108789085908590859061193a565b60405180910390a1505050565b6000546001600160a01b031690565b6001546001600160a01b031633146108be5760405162461bcd60e51b8152600401610504906119b6565b6000828152600460205260409020546001600160a01b038281169116146108f75760405162461bcd60e51b815260040161050490611966565b610901828261121d565b7f9500930138fb0e2d16520cbf818e35a0c218d76dc463b467ee4f28c38aad3b31826040516109309190611bc6565b60405180910390a15050565b6001546001600160a01b031633146109665760405162461bcd60e51b8152600401610504906119b6565b600034116109865760405162461bcd60e51b815260040161050490611b9a565b600380546001019055604080516060810182526001600160a01b0383168152346020808301919091528251601f8601829004820281018201845285815291928301919086908690819084018382808284376000920182905250939094525050600354815260046020908152604091829020845181546001600160a01b0319166001600160a01b03909116178155848201516001820155918401518051929350610a389260028501929190910190611395565b5090505060058383604051610a4e9291906117df565b908152604080519182900360209081018320600380548254600181810185556000948552858520909101919091556001600160a01b038716835260068452938220905481549485018255908252919020909101553490600290610ab490869086906117df565b90815260405190819003602001812080549092019091556003547f3c0105fffaf14a432e4ce83520ad0e37d34055557b1ccc65668d19a7b708eca8916108789184913491889188919061188f565b6001546001600160a01b03163314610b2c5760405162461bcd60e51b8152600401610504906119b6565b6000828152600760205260409020546001600160a01b03828116911614610b655760405162461bcd60e51b815260040161050490611b06565b6000828152600760205260408082209051600c91610b88916002909101906117ef565b9081526040519081900360200190205460ff166001811115610ba657fe5b14610bc35760405162461bcd60e51b815260040161050490611b6e565b60008281526007602052604090819020600181015491518291600b91610bec91600201906117ef565b9081526040519081900360200181208054929092039091557fba8a5978b05e4534ae07cbcc64e6275eb476cd018ff9d748f8982cb81974feca90610c31908590611bc6565b60405180910390a1600083815260076020526040812080546001600160a01b03191681556001810182905590610c6a6002830182611413565b50506040516001600160a01b0383169082156108fc029083906000818181858888f19350505050158015610ca2573d6000803e3d6000fd5b50505050565b60076020908152600091825260409182902080546001808301546002808501805488516101009582161595909502600019011691909104601f81018790048702840187019097528683526001600160a01b03909316959094919291830182828015610d545780601f10610d2957610100808354040283529160200191610d54565b820191906000526020600020905b815481529060010190602001808311610d3757829003601f168201915b5050505050905083565b6001546001600160a01b03163314610d885760405162461bcd60e51b8152600401610504906119b6565b8181604051610d989291906117df565b6040805191829003822060008781526004602052919091209091610dbf91600201906117ef565b604051809103902014610de45760405162461bcd60e51b815260040161050490611a53565b610dee848461121d565b7f4daeee262f737930465bdb0cd4154b5e366381fe0a3aa4cc7cad2e19faee9c9884604051610e1d9190611bc6565b60405180910390a150505050565b6001546001600160a01b03163314610e555760405162461bcd60e51b8152600401610504906119b6565b60003411610e755760405162461bcd60e51b815260040161050490611b9a565b6000600c8484604051610e899291906117df565b9081526040519081900360200190205460ff166001811115610ea757fe5b14610ec45760405162461bcd60e51b815260040161050490611b6e565b600880546001019055604080516060810182526001600160a01b0383168152346020808301919091528251601f8601829004820281018201845285815291928301919086908690819084018382808284376000920182905250939094525050600854815260076020908152604091829020845181546001600160a01b0319166001600160a01b03909116178155848201516001820155918401518051929350610f769260028501929190910190611395565b5090505060098383604051610f8c9291906117df565b908152604080519182900360209081018320600880548254600181810185556000948552858520909101919091556001600160a01b0387168352600a8452938220905481549485018255908252919020909101553490600b90610ff290869086906117df565b90815260405190819003602001812080549092019091556008547f1c0306f1b3e6623ac3e5a5b1b36db068ce661a4afdd25b0fa922519d7ea9cf5a916108789184913491889188919061188f565b60046020908152600091825260409182902080546001808301546002808501805488516101009582161595909502600019011691909104601f81018790048702840187019097528683526001600160a01b03909316959094919291830182828015610d545780601f10610d2957610100808354040283529160200191610d54565b805160208183018101805160028252928201919093012091525481565b6110e6611219565b6000546001600160a01b039081169116146111135760405162461bcd60e51b815260040161050490611ad1565b6001600160a01b0381166111395760405162461bcd60e51b815260040161050490611a0d565b600080546040516001600160a01b03808516939216917f8be0079c531659141344cd1fd0a4f28419497f9722a3daafe3b4186f6b6457e091a3600080546001600160a01b0319166001600160a01b0392909216919091179055565b61119c611219565b6000546001600160a01b039081169116146111c95760405162461bcd60e51b815260040161050490611ad1565b600180546001600160a01b0319166001600160a01b0392909216919091179055565b60085481565b8151602081840181018051600582529282019185019190912091905280548290811061047357fe5b3390565b61122561145a565b600083815260046020908152604091829020825160608101845281546001600160a01b03168152600180830154828501526002808401805487516101009482161594909402600019011691909104601f810186900486028301860187528083529295939493860193919290918301828280156112e25780601f106112b7576101008083540402835291602001916112e2565b820191906000526020600020905b8154815290600101906020018083116112c557829003601f168201915b5050505050815250509050816001600160a01b03166108fc82602001519081150290604051600060405180830381858888f1935050505015801561132a573d6000803e3d6000fd5b50806020015160028260400151604051611344919061185f565b90815260408051602092819003830190208054939093039092556000858152600490915290812080546001600160a01b0319168155600181018290559061138e6002830182611413565b5050505050565b828054600181600116156101000203166002900490600052602060002090601f016020900481019282601f106113d657805160ff1916838001178555611403565b82800160010185558215611403579182015b828111156114035782518255916020019190600101906113e8565b5061140f929150611484565b5090565b50805460018160011615610100020316600290046000825580601f106114395750611457565b601f0160209004906000526020600020908101906114579190611484565b50565b604051806060016040528060006001600160a01b0316815260200160008152602001606081525090565b5b8082111561140f5760008155600101611485565b60008083601f8401126114aa578182fd5b5081356001600160401b038111156114c0578182fd5b6020830191508360208285010111156114d857600080fd5b9250929050565b600082601f8301126114ef578081fd5b81356001600160401b0380821115611505578283fd5b604051601f8301601f191681016020018281118282101715611525578485fd5b60405282815292508284830160200186101561154057600080fd5b8260208601602083013760006020848301015250505092915050565b60006020828403121561156d578081fd5b813561157881611bfb565b9392505050565b600080600060408486031215611593578182fd5b833561159e81611bfb565b925060208401356001600160401b038111156115b8578283fd5b6115c486828701611499565b9497909650939450505050565b600080604083850312156115e3578182fd5b82356115ee81611bfb565b946020939093013593505050565b600080600060408486031215611610578283fd5b83356001600160401b03811115611625578384fd5b61163186828701611499565b909450925050602084013561164581611bfb565b809150509250925092565b600080600060408486031215611664578283fd5b83356001600160401b03811115611679578384fd5b61168586828701611499565b909790965060209590950135949350505050565b6000602082840312156116aa578081fd5b81356001600160401b038111156116bf578182fd5b6116cb848285016114df565b949350505050565b600080604083850312156116e5578182fd5b82356001600160401b038111156116fa578283fd5b611706858286016114df565b95602094909401359450505050565b600060208284031215611726578081fd5b5035919050565b6000806040838503121561173f578182fd5b82359150602083013561175181611bfb565b809150509250929050565b60008060008060608587031215611771578081fd5b84359350602085013561178381611bfb565b925060408501356001600160401b0381111561179d578182fd5b6117a987828801611499565b95989497509550505050565b60008284528282602086013780602084860101526020601f19601f85011685010190509392505050565b6000828483379101908152919050565b600080835460018082166000811461180e576001811461182557611854565b60ff198316865260028304607f1686019350611854565b600283048786526020808720875b8381101561184c5781548a820152908501908201611833565b505050860193505b509195945050505050565b60008251611871818460208701611bcf565b9190910192915050565b6001600160a01b0391909116815260200190565b600060018060a01b0387168252856020830152608060408301526118b76080830185876117b5565b90508260608301529695505050505050565b600060018060a01b03851682528360208301526060604083015282518060608401526118fc816080850160208701611bcf565b601f01601f191691909101608001949350505050565b602081016002831061192057fe5b91905290565b6000602082526116cb6020830184866117b5565b60006040825261194e6040830185876117b5565b905060018060a01b0383166020830152949350505050565b60208082526030908201527f4465706f73697420646964206e6f742063616d652066726f6d2074686973204560408201526f3a3432b932bab69030b2323932b9b99760811b606082015260800190565b60208082526037908201527f4f6e6c79207468652063757272656e74206f63746f6261792076657273696f6e6040820152761031b0b7103ab9b2903a3434b990333ab731ba34b7b71760491b606082015260800190565b60208082526026908201527f4f776e61626c653a206e6577206f776e657220697320746865207a65726f206160408201526564647265737360d01b606082015260800190565b60208082526027908201527f4465706f736974206973206e6f7420666f72207468697320476974487562206160408201526631b1b7bab73a1760c91b606082015260800190565b6020808252601e908201527f4e6f7420656e6f7567682066756e647320746f20706179206761734665650000604082015260600190565b6020808252818101527f4f776e61626c653a2063616c6c6572206973206e6f7420746865206f776e6572604082015260600190565b60208082526042908201527f4465706f73697420646964206e6f7420636f6d652066726f6d2074686973204560408201527f7468657265756d2061646472657373206f7220646f6573206e6f7420657869736060820152613a1760f11b608082015260a00190565b60208082526012908201527124b9b9bab29034b9903737ba1027a822a71760711b604082015260600190565b6020808252601290820152712cb7ba9036bab9ba1039b2b7321022aa241760711b604082015260600190565b90815260200190565b60005b83811015611bea578181015183820152602001611bd2565b83811115610ca25750506000910152565b6001600160a01b038116811461145757600080fdfea2646970667358221220252a9072773a757965efee05f232f6361940bd500fa60acc81cca58b1ff0286e64736f6c634300060c0033",
  "immutableReferences": {},
  "source": "// SPDX-License-Identifier: MIT\npragma solidity ^0.6.0;\npragma experimental ABIEncoderV2;\n\nimport './OctobayStorage.sol';\nimport './OctobayGovToken.sol';\n\ncontract DepositStorage is OctobayStorage {\n\n    struct IssueDeposit {\n        address from;\n        uint256 amount;\n        string issueId;\n    }\n\n\n    struct UserDeposit {\n        address from;\n        uint256 amount;\n        string githubUserId;\n    }\n  \n\n    enum IssueStatus {\n        // NOT_VALID, // There's no sense of 'opening' an issue atm, this would be used if so\n        OPEN,\n        CLAIMED\n    }\n\n    mapping(string => uint256) public userClaimAmountByGithbUserId;\n\n    uint256 private nextUserDepositId = 0;\n    mapping(uint256 => UserDeposit) public userDeposits;\n    mapping(string => uint256[]) public userDepositIdsByGithubUserId;\n    mapping(address => uint256[]) public userDepositIdsBySender;  \n\n    mapping(uint256 => IssueDeposit) public issueDeposits;\n    uint256 public nextIssueDepositId = 0;\n    mapping(string => uint256[]) public issueDepositIdsByIssueId; // Consider removing this? Can be derived from issueDeposits. Unless we need it for deletion.\n    mapping(address => uint256[]) public issueDepositIdsBySender;\n    mapping(string => uint256) public issueDepositsAmountByIssueId;\n    mapping(string => IssueStatus) public issueStatusByIssueId;\n    mapping(string => OctobayGovToken) public govTokenByIssueId;\n\n    // ------------ GSN ------------ //\n\n    function deductGasFee(string calldata _githubUserId, uint256 _amount)\n        external onlyOctobay\n    {\n        require(userClaimAmountByGithbUserId[_githubUserId] >= _amount, 'Not enough funds to pay gasFee');\n        userClaimAmountByGithbUserId[_githubUserId] -= _amount;\n    }\n\n    // ------------ USER DEPOSITS ------------ //\n\n    event UserDepositEvent(address from, uint256 amount, string githubUserId, uint256 depositId);\n    event RefundUserDepositEvent(uint256 depositId);\n    event WithdrawUserDepositEvent(uint256 depositId);\n\n    function depositEthForGithubUser(string calldata _githubUserId, address msgSender)\n        external\n        payable\n        onlyOctobay\n    {\n        require(msg.value > 0, 'You must send ETH.');\n\n        nextUserDepositId++;\n        userDeposits[nextUserDepositId] = UserDeposit(\n            msgSender,\n            msg.value,\n            _githubUserId\n        );\n        userDepositIdsByGithubUserId[_githubUserId].push(nextUserDepositId);\n        userDepositIdsBySender[msgSender].push(nextUserDepositId);\n\n        // increment claim amount\n        userClaimAmountByGithbUserId[_githubUserId] += msg.value;\n\n        emit UserDepositEvent(msgSender, msg.value, _githubUserId, nextUserDepositId);\n    }\n\n    function refundUserDeposit(uint256 _depositId, address msgSender) external onlyOctobay {\n        require(\n            userDeposits[_depositId].from == msgSender,\n            'Deposit did not came from this Ethereum address.'\n        );\n        _sendDeposit(_depositId, msgSender);   // msg.sender is depositor\n        \n        emit RefundUserDepositEvent(_depositId);\n    }\n\n    function withdrawUserDeposit(uint256 _depositId, address msgSender, string calldata _userId) external onlyOctobay {\n        require(\n            keccak256(bytes(userDeposits[_depositId].githubUserId)) ==\n                keccak256(\n                    bytes(_userId)\n                ),\n            'Deposit is not for this GitHub account.'\n        );\n        _sendDeposit(_depositId, msgSender);   // msg.sender is user\n\n        emit WithdrawUserDepositEvent(_depositId);\n    }\n\n    function _sendDeposit(uint256 _depositId, address _to) internal {\n        UserDeposit memory deposit = userDeposits[_depositId];\n        payable(_to).transfer(deposit.amount);\n\n        // reduce claim amount\n        userClaimAmountByGithbUserId[deposit.githubUserId] -= deposit.amount;\n\n        delete userDeposits[_depositId];\n    }\n\n    // ------------ ISSUE DEPOSITS ------------ //\n\n    event IssueDepositEvent(address from, uint256 amount, string issueId, uint256 depositId);\n    event RefundIssueDepositEvent(uint256 depositId);\n    event WithdrawIssueDepositsEvent(string issueId);\n    event SetGovTokenForIssueEvent(string  issueId, address govTokenAddress);\n\n    function setGovTokenForIssue(string calldata _issueId, OctobayGovToken _govToken) external onlyOctobay {\n        require(issueStatusByIssueId[_issueId] == IssueStatus.OPEN, 'Issue is not OPEN.');\n        govTokenByIssueId[_issueId] = _govToken;\n        emit SetGovTokenForIssueEvent(_issueId, address(_govToken));\n    }\n\n    function depositEthForIssue(string calldata _issueId, address msgSender) external payable onlyOctobay {\n        require(msg.value > 0, 'You must send ETH.');\n        require(issueStatusByIssueId[_issueId] == IssueStatus.OPEN, 'Issue is not OPEN.');\n\n        nextIssueDepositId++;\n        issueDeposits[nextIssueDepositId] = IssueDeposit(\n            msgSender,\n            msg.value,\n            _issueId\n        );\n        issueDepositIdsByIssueId[_issueId].push(nextIssueDepositId);\n        issueDepositIdsBySender[msgSender].push(nextIssueDepositId);\n        issueDepositsAmountByIssueId[_issueId] += msg.value;\n\n        emit IssueDepositEvent(msgSender, msg.value, _issueId, nextIssueDepositId);\n    }\n\n    function refundIssueDeposit(uint256 _depositId, address msgSender) external onlyOctobay {\n        require(\n            issueDeposits[_depositId].from == msgSender,\n            'Deposit did not come from this Ethereum address or does not exist.'\n        );\n        require(issueStatusByIssueId[issueDeposits[_depositId].issueId] == IssueStatus.OPEN, 'Issue is not OPEN.');\n\n        uint256 payoutAmt = issueDeposits[_depositId].amount;\n        issueDepositsAmountByIssueId[\n            issueDeposits[_depositId].issueId\n        ] -= payoutAmt;\n\n        emit RefundIssueDepositEvent(_depositId);\n\n        delete issueDeposits[_depositId];\n\n        payable(msgSender).transfer(payoutAmt);\n    }\n\n    function confirmWithdrawIssueDeposit(address _payoutAddress, string calldata _issueId)\n        external onlyOctobay\n        returns(uint256)\n    {\n        require(_payoutAddress != address(0));\n        uint256 payoutAmt = issueDepositsAmountByIssueId[_issueId];\n        issueDepositsAmountByIssueId[_issueId] = 0;\n        issueStatusByIssueId[_issueId] = IssueStatus.CLAIMED;\n        // delete issueDeposits[_depositId]; ??? loop through issueDepositIdsByIssueId ???\n\n        emit WithdrawIssueDepositsEvent(_issueId);\n\n        payable(_payoutAddress).transfer(payoutAmt);\n\n        return payoutAmt;\n    }\n\n}",
  "sourcePath": "/home/mkt/Projects/octobay/contracts/contracts/DepositStorage.sol",
  "compiler": {
    "name": "solc",
    "version": "0.6.12+commit.27d51765.Emscripten.clang"
  },
  "schemaVersion": "3.3.4",
  "updatedAt": "2021-05-31T23:15:14.940Z",
  "devdoc": {
    "kind": "dev",
    "methods": {
      "owner()": {
        "details": "Returns the address of the current owner."
      },
      "renounceOwnership()": {
        "details": "Leaves the contract without owner. It will not be possible to call `onlyOwner` functions anymore. Can only be called by the current owner. NOTE: Renouncing ownership will leave the contract without an owner, thereby removing any functionality that is only available to the owner."
      },
      "transferOwnership(address)": {
        "details": "Transfers ownership of the contract to a new account (`newOwner`). Can only be called by the current owner."
      }
    },
    "version": 1
  },
  "userdoc": {
    "kind": "user",
    "methods": {},
    "version": 1
  }
}