{
  "contractName": "LinkReceiver",
  "abi": [
    {
      "inputs": [],
      "name": "callDataCalled",
      "outputs": [
        {
          "internalType": "bool",
          "name": "",
          "type": "bool"
        }
      ],
      "stateMutability": "view",
      "type": "function"
    },
    {
      "inputs": [],
      "name": "fallbackCalled",
      "outputs": [
        {
          "internalType": "bool",
          "name": "",
          "type": "bool"
        }
      ],
      "stateMutability": "view",
      "type": "function"
    },
    {
      "inputs": [],
      "name": "tokensReceived",
      "outputs": [
        {
          "internalType": "uint256",
          "name": "",
          "type": "uint256"
        }
      ],
      "stateMutability": "view",
      "type": "function"
    },
    {
      "inputs": [
        {
          "internalType": "address",
          "name": "_from",
          "type": "address"
        },
        {
          "internalType": "uint256",
          "name": "_amount",
          "type": "uint256"
        },
        {
          "internalType": "bytes",
          "name": "_data",
          "type": "bytes"
        }
      ],
      "name": "onTokenTransfer",
      "outputs": [
        {
          "internalType": "bool",
          "name": "",
          "type": "bool"
        }
      ],
      "stateMutability": "nonpayable",
      "type": "function"
    },
    {
      "inputs": [],
      "name": "callbackWithoutWithdrawl",
      "outputs": [],
      "stateMutability": "nonpayable",
      "type": "function"
    },
    {
      "inputs": [
        {
          "internalType": "uint256",
          "name": "_value",
          "type": "uint256"
        },
        {
          "internalType": "address",
          "name": "_from",
          "type": "address"
        },
        {
          "internalType": "address",
          "name": "_token",
          "type": "address"
        }
      ],
      "name": "callbackWithWithdrawl",
      "outputs": [],
      "stateMutability": "nonpayable",
      "type": "function"
    }
  ],
  "bytecode": "0x608060405234801561001057600080fd5b506103cc806100206000396000f3fe608060405234801561001057600080fd5b50600436106100625760003560e01c8063043e94bd14610067578063082017ea146100715780633bb0cc55146100a5578063a4c0ed36146100bf578063aa2c4b021461018e578063e2994d4314610196575b600080fd5b61006f61019e565b005b61006f6004803603606081101561008757600080fd5b508035906001600160a01b03602082013581169160400135166101af565b6100ad610251565b60408051918252519081900360200190f35b61017a600480360360608110156100d557600080fd5b6001600160a01b038235169160208101359181019060608101604082013564010000000081111561010557600080fd5b82018360208201111561011757600080fd5b8035906020019184600183028401116401000000008311171561013957600080fd5b91908080601f016020809104026020016040519081016040528093929190818152602001838380828437600092019190915250929550610257945050505050565b604080519115158252519081900360200190f35b61017a61035c565b61017a610365565b6000805461ff001916610100179055565b6000805461ff001916610100178155604080516323b872dd60e01b81526001600160a01b0385811660048301523060248301526044820187905291518493928416926323b872dd92606480820193602093909283900390910190829087803b15801561021a57600080fd5b505af115801561022e573d6000803e3d6000fd5b505050506040513d602081101561024457600080fd5b5050506001929092555050565b60015481565b6000805460ff191660011781558151156103525760006060306001600160a01b0316846040518082805190602001908083835b602083106102a95780518252601f19909201916020918201910161028a565b6001836020036101000a038019825116818451168082178552505050505050905001915050600060405180830381855af49150503d8060008114610309576040519150601f19603f3d011682016040523d82523d6000602084013e61030e565b606091505b50915091508161034f5760405162461bcd60e51b81526004018080602001828103825260238152602001806103746023913960400191505060405180910390fd5b50505b5060019392505050565b60005460ff1681565b600054610100900460ff168156fe6f6e546f6b656e5472616e736665723a64656c656761746563616c6c206661696c6564a26469706673582212207d3c3bd4420d278edf1e419e55af0c4f64315f81508463aaef32178d037e6f5664736f6c634300060c0033",
  "immutableReferences": {},
  "source": "pragma solidity ^0.6.0;\n\nimport \"@openzeppelin/contracts/token/ERC20/IERC20.sol\";\n\ncontract LinkReceiver {\n  bool public fallbackCalled;\n  bool public callDataCalled;\n  uint public tokensReceived;\n\n  function onTokenTransfer(address _from, uint _amount, bytes memory _data) public returns (bool) {\n    fallbackCalled = true;\n    if (_data.length > 0) {\n      (bool success, bytes memory _returnData) = address(this).delegatecall(_data);\n      require(success, \"onTokenTransfer:delegatecall failed\");\n    }\n    return true;\n  }\n\n  function callbackWithoutWithdrawl() public {\n    callDataCalled = true;\n  }\n\n  function callbackWithWithdrawl(uint _value, address _from, address _token) public {\n    callDataCalled = true;\n    IERC20 token = IERC20(_token);\n    token.transferFrom(_from, address(this), _value);\n    tokensReceived = _value;\n  }\n}\n",
  "sourcePath": "/home/mkt/Projects/octobay/contracts/contracts/link-token/mocks/LinkReceiver.sol",
  "compiler": {
    "name": "solc",
    "version": "0.6.12+commit.27d51765.Emscripten.clang"
  },
  "schemaVersion": "3.3.4",
  "updatedAt": "2021-05-31T23:15:15.047Z",
  "devdoc": {
    "kind": "dev",
    "methods": {},
    "version": 1
  },
  "userdoc": {
    "kind": "user",
    "methods": {},
    "version": 1
  }
}