{
  "contractName": "OctobayGovNFT",
  "abi": [
    {
      "inputs": [
        {
          "internalType": "string",
          "name": "name",
          "type": "string"
        },
        {
          "internalType": "string",
          "name": "symbol",
          "type": "string"
        }
      ],
      "stateMutability": "nonpayable",
      "type": "constructor"
    },
    {
      "anonymous": false,
      "inputs": [
        {
          "indexed": true,
          "internalType": "address",
          "name": "owner",
          "type": "address"
        },
        {
          "indexed": true,
          "internalType": "address",
          "name": "approved",
          "type": "address"
        },
        {
          "indexed": true,
          "internalType": "uint256",
          "name": "tokenId",
          "type": "uint256"
        }
      ],
      "name": "Approval",
      "type": "event"
    },
    {
      "anonymous": false,
      "inputs": [
        {
          "indexed": true,
          "internalType": "address",
          "name": "owner",
          "type": "address"
        },
        {
          "indexed": true,
          "internalType": "address",
          "name": "operator",
          "type": "address"
        },
        {
          "indexed": false,
          "internalType": "bool",
          "name": "approved",
          "type": "bool"
        }
      ],
      "name": "ApprovalForAll",
      "type": "event"
    },
    {
      "anonymous": false,
      "inputs": [
        {
          "indexed": false,
          "internalType": "uint256",
          "name": "tokenId",
          "type": "uint256"
        }
      ],
      "name": "BurnTokenEvent",
      "type": "event"
    },
    {
      "anonymous": false,
      "inputs": [
        {
          "indexed": false,
          "internalType": "address",
          "name": "to",
          "type": "address"
        },
        {
          "indexed": false,
          "internalType": "uint256",
          "name": "tokenId",
          "type": "uint256"
        },
        {
          "indexed": false,
          "internalType": "address",
          "name": "govTokenAddress",
          "type": "address"
        }
      ],
      "name": "MintNFTForGovTokenEvent",
      "type": "event"
    },
    {
      "anonymous": false,
      "inputs": [
        {
          "indexed": true,
          "internalType": "address",
          "name": "previousOwner",
          "type": "address"
        },
        {
          "indexed": true,
          "internalType": "address",
          "name": "newOwner",
          "type": "address"
        }
      ],
      "name": "OwnershipTransferred",
      "type": "event"
    },
    {
      "anonymous": false,
      "inputs": [
        {
          "indexed": false,
          "internalType": "address",
          "name": "from",
          "type": "address"
        },
        {
          "indexed": false,
          "internalType": "address",
          "name": "to",
          "type": "address"
        },
        {
          "indexed": false,
          "internalType": "uint256",
          "name": "tokenId",
          "type": "uint256"
        }
      ],
      "name": "TokenTransferEvent",
      "type": "event"
    },
    {
      "anonymous": false,
      "inputs": [
        {
          "indexed": true,
          "internalType": "address",
          "name": "from",
          "type": "address"
        },
        {
          "indexed": true,
          "internalType": "address",
          "name": "to",
          "type": "address"
        },
        {
          "indexed": true,
          "internalType": "uint256",
          "name": "tokenId",
          "type": "uint256"
        }
      ],
      "name": "Transfer",
      "type": "event"
    },
    {
      "inputs": [
        {
          "internalType": "address",
          "name": "to",
          "type": "address"
        },
        {
          "internalType": "uint256",
          "name": "tokenId",
          "type": "uint256"
        }
      ],
      "name": "approve",
      "outputs": [],
      "stateMutability": "nonpayable",
      "type": "function"
    },
    {
      "inputs": [
        {
          "internalType": "address",
          "name": "owner",
          "type": "address"
        }
      ],
      "name": "balanceOf",
      "outputs": [
        {
          "internalType": "uint256",
          "name": "",
          "type": "uint256"
        }
      ],
      "stateMutability": "view",
      "type": "function"
    },
    {
      "inputs": [],
      "name": "baseURI",
      "outputs": [
        {
          "internalType": "string",
          "name": "",
          "type": "string"
        }
      ],
      "stateMutability": "view",
      "type": "function"
    },
    {
      "inputs": [
        {
          "internalType": "uint256",
          "name": "tokenId",
          "type": "uint256"
        }
      ],
      "name": "getApproved",
      "outputs": [
        {
          "internalType": "address",
          "name": "",
          "type": "address"
        }
      ],
      "stateMutability": "view",
      "type": "function"
    },
    {
      "inputs": [
        {
          "internalType": "uint256",
          "name": "",
          "type": "uint256"
        }
      ],
      "name": "govTokensByTokenId",
      "outputs": [
        {
          "internalType": "contract OctobayGovToken",
          "name": "",
          "type": "address"
        }
      ],
      "stateMutability": "view",
      "type": "function"
    },
    {
      "inputs": [
        {
          "internalType": "address",
          "name": "owner",
          "type": "address"
        },
        {
          "internalType": "address",
          "name": "operator",
          "type": "address"
        }
      ],
      "name": "isApprovedForAll",
      "outputs": [
        {
          "internalType": "bool",
          "name": "",
          "type": "bool"
        }
      ],
      "stateMutability": "view",
      "type": "function"
    },
    {
      "inputs": [],
      "name": "name",
      "outputs": [
        {
          "internalType": "string",
          "name": "",
          "type": "string"
        }
      ],
      "stateMutability": "view",
      "type": "function"
    },
    {
      "inputs": [],
      "name": "octobay",
      "outputs": [
        {
          "internalType": "address",
          "name": "",
          "type": "address"
        }
      ],
      "stateMutability": "view",
      "type": "function"
    },
    {
      "inputs": [],
      "name": "owner",
      "outputs": [
        {
          "internalType": "address",
          "name": "",
          "type": "address"
        }
      ],
      "stateMutability": "view",
      "type": "function"
    },
    {
      "inputs": [
        {
          "internalType": "uint256",
          "name": "tokenId",
          "type": "uint256"
        }
      ],
      "name": "ownerOf",
      "outputs": [
        {
          "internalType": "address",
          "name": "",
          "type": "address"
        }
      ],
      "stateMutability": "view",
      "type": "function"
    },
    {
      "inputs": [
        {
          "internalType": "uint256",
          "name": "",
          "type": "uint256"
        },
        {
          "internalType": "uint256",
          "name": "",
          "type": "uint256"
        }
      ],
      "name": "permissionsByTokenId",
      "outputs": [
        {
          "internalType": "bool",
          "name": "",
          "type": "bool"
        }
      ],
      "stateMutability": "view",
      "type": "function"
    },
    {
      "inputs": [],
      "name": "renounceOwnership",
      "outputs": [],
      "stateMutability": "nonpayable",
      "type": "function"
    },
    {
      "inputs": [
        {
          "internalType": "address",
          "name": "from",
          "type": "address"
        },
        {
          "internalType": "address",
          "name": "to",
          "type": "address"
        },
        {
          "internalType": "uint256",
          "name": "tokenId",
          "type": "uint256"
        }
      ],
      "name": "safeTransferFrom",
      "outputs": [],
      "stateMutability": "nonpayable",
      "type": "function"
    },
    {
      "inputs": [
        {
          "internalType": "address",
          "name": "from",
          "type": "address"
        },
        {
          "internalType": "address",
          "name": "to",
          "type": "address"
        },
        {
          "internalType": "uint256",
          "name": "tokenId",
          "type": "uint256"
        },
        {
          "internalType": "bytes",
          "name": "_data",
          "type": "bytes"
        }
      ],
      "name": "safeTransferFrom",
      "outputs": [],
      "stateMutability": "nonpayable",
      "type": "function"
    },
    {
      "inputs": [
        {
          "internalType": "address",
          "name": "operator",
          "type": "address"
        },
        {
          "internalType": "bool",
          "name": "approved",
          "type": "bool"
        }
      ],
      "name": "setApprovalForAll",
      "outputs": [],
      "stateMutability": "nonpayable",
      "type": "function"
    },
    {
      "inputs": [
        {
          "internalType": "address",
          "name": "_octobay",
          "type": "address"
        }
      ],
      "name": "setOctobay",
      "outputs": [],
      "stateMutability": "nonpayable",
      "type": "function"
    },
    {
      "inputs": [
        {
          "internalType": "bytes4",
          "name": "interfaceId",
          "type": "bytes4"
        }
      ],
      "name": "supportsInterface",
      "outputs": [
        {
          "internalType": "bool",
          "name": "",
          "type": "bool"
        }
      ],
      "stateMutability": "view",
      "type": "function"
    },
    {
      "inputs": [],
      "name": "symbol",
      "outputs": [
        {
          "internalType": "string",
          "name": "",
          "type": "string"
        }
      ],
      "stateMutability": "view",
      "type": "function"
    },
    {
      "inputs": [
        {
          "internalType": "uint256",
          "name": "index",
          "type": "uint256"
        }
      ],
      "name": "tokenByIndex",
      "outputs": [
        {
          "internalType": "uint256",
          "name": "",
          "type": "uint256"
        }
      ],
      "stateMutability": "view",
      "type": "function"
    },
    {
      "inputs": [
        {
          "internalType": "address",
          "name": "owner",
          "type": "address"
        },
        {
          "internalType": "uint256",
          "name": "index",
          "type": "uint256"
        }
      ],
      "name": "tokenOfOwnerByIndex",
      "outputs": [
        {
          "internalType": "uint256",
          "name": "",
          "type": "uint256"
        }
      ],
      "stateMutability": "view",
      "type": "function"
    },
    {
      "inputs": [
        {
          "internalType": "uint256",
          "name": "tokenId",
          "type": "uint256"
        }
      ],
      "name": "tokenURI",
      "outputs": [
        {
          "internalType": "string",
          "name": "",
          "type": "string"
        }
      ],
      "stateMutability": "view",
      "type": "function"
    },
    {
      "inputs": [],
      "name": "totalSupply",
      "outputs": [
        {
          "internalType": "uint256",
          "name": "",
          "type": "uint256"
        }
      ],
      "stateMutability": "view",
      "type": "function"
    },
    {
      "inputs": [
        {
          "internalType": "address",
          "name": "from",
          "type": "address"
        },
        {
          "internalType": "address",
          "name": "to",
          "type": "address"
        },
        {
          "internalType": "uint256",
          "name": "tokenId",
          "type": "uint256"
        }
      ],
      "name": "transferFrom",
      "outputs": [],
      "stateMutability": "nonpayable",
      "type": "function"
    },
    {
      "inputs": [
        {
          "internalType": "address",
          "name": "newOwner",
          "type": "address"
        }
      ],
      "name": "transferOwnership",
      "outputs": [],
      "stateMutability": "nonpayable",
      "type": "function"
    },
    {
      "inputs": [
        {
          "internalType": "uint256",
          "name": "_tokenId",
          "type": "uint256"
        },
        {
          "internalType": "enum OctobayGovNFT.Permission",
          "name": "_perm",
          "type": "uint8"
        }
      ],
      "name": "hasPermission",
      "outputs": [
        {
          "internalType": "bool",
          "name": "",
          "type": "bool"
        }
      ],
      "stateMutability": "view",
      "type": "function"
    },
    {
      "inputs": [
        {
          "internalType": "uint256",
          "name": "_tokenId",
          "type": "uint256"
        }
      ],
      "name": "grantAllPermissions",
      "outputs": [],
      "stateMutability": "nonpayable",
      "type": "function"
    },
    {
      "inputs": [
        {
          "internalType": "uint256",
          "name": "_tokenId",
          "type": "uint256"
        },
        {
          "internalType": "enum OctobayGovNFT.Permission",
          "name": "_perm",
          "type": "uint8"
        }
      ],
      "name": "grantPermission",
      "outputs": [],
      "stateMutability": "nonpayable",
      "type": "function"
    },
    {
      "inputs": [
        {
          "internalType": "uint256",
          "name": "_tokenId",
          "type": "uint256"
        },
        {
          "internalType": "enum OctobayGovNFT.Permission",
          "name": "_perm",
          "type": "uint8"
        }
      ],
      "name": "revokePermission",
      "outputs": [],
      "stateMutability": "nonpayable",
      "type": "function"
    },
    {
      "inputs": [
        {
          "internalType": "address",
          "name": "_to",
          "type": "address"
        },
        {
          "internalType": "contract OctobayGovToken",
          "name": "_govToken",
          "type": "address"
        }
      ],
      "name": "mintNFTForGovToken",
      "outputs": [
        {
          "internalType": "uint256",
          "name": "",
          "type": "uint256"
        }
      ],
      "stateMutability": "nonpayable",
      "type": "function"
    },
    {
      "inputs": [
        {
          "internalType": "address",
          "name": "_user",
          "type": "address"
        },
        {
          "internalType": "contract OctobayGovToken",
          "name": "_govToken",
          "type": "address"
        },
        {
          "internalType": "enum OctobayGovNFT.Permission",
          "name": "_perm",
          "type": "uint8"
        }
      ],
      "name": "userHasPermissionForGovToken",
      "outputs": [
        {
          "internalType": "bool",
          "name": "",
          "type": "bool"
        }
      ],
      "stateMutability": "view",
      "type": "function"
    },
    {
      "inputs": [
        {
          "internalType": "address",
          "name": "_to",
          "type": "address"
        },
        {
          "internalType": "uint256",
          "name": "_tokenId",
          "type": "uint256"
        },
        {
          "internalType": "enum OctobayGovNFT.Permission[]",
          "name": "_perms",
          "type": "uint8[]"
        },
        {
          "internalType": "contract OctobayGovToken",
          "name": "_govToken",
          "type": "address"
        }
      ],
      "name": "mintTokenWithPermissions",
      "outputs": [],
      "stateMutability": "nonpayable",
      "type": "function"
    },
    {
      "inputs": [
        {
          "internalType": "uint256",
          "name": "_tokenId",
          "type": "uint256"
        }
      ],
      "name": "burn",
      "outputs": [],
      "stateMutability": "nonpayable",
      "type": "function"
    }
  ],
  "bytecode": "0x60806040523480156200001157600080fd5b5060405162002bde38038062002bde8339810160408190526200003491620002ac565b81816000620000426200010a565b600080546001600160a01b0319166001600160a01b0383169081178255604051929350917f8be0079c531659141344cd1fd0a4f28419497f9722a3daafe3b4186f6b6457e0908290a3506200009e6301ffc9a760e01b6200010e565b8151620000b390600890602085019062000169565b508051620000c990600990602084019062000169565b50620000dc6380ac58cd60e01b6200010e565b620000ee635b5e139f60e01b6200010e565b6200010063780e9d6360e01b6200010e565b505050506200034a565b3390565b6001600160e01b03198082161415620001445760405162461bcd60e51b81526004016200013b9062000313565b60405180910390fd5b6001600160e01b0319166000908152600260205260409020805460ff19166001179055565b828054600181600116156101000203166002900490600052602060002090601f016020900481019282601f10620001ac57805160ff1916838001178555620001dc565b82800160010185558215620001dc579182015b82811115620001dc578251825591602001919060010190620001bf565b50620001ea929150620001ee565b5090565b5b80821115620001ea5760008155600101620001ef565b600082601f83011262000216578081fd5b81516001600160401b03808211156200022d578283fd5b6040516020601f8401601f19168201810183811183821017156200024f578586fd5b806040525081945083825286818588010111156200026c57600080fd5b600092505b8383101562000290578583018101518284018201529182019162000271565b83831115620002a25760008185840101525b5050505092915050565b60008060408385031215620002bf578182fd5b82516001600160401b0380821115620002d6578384fd5b620002e48683870162000205565b93506020850151915080821115620002fa578283fd5b50620003098582860162000205565b9150509250929050565b6020808252601c908201527f4552433136353a20696e76616c696420696e7465726661636520696400000000604082015260600190565b612884806200035a6000396000f3fe608060405234801561001057600080fd5b50600436106101b05760003560e01c8063715018a6116100ef578063c88fd0e311610092578063c88fd0e31461036f578063ceb0d74714610382578063df20c82814610395578063e483abaf146103a8578063e7957c35146103bb578063e985e9c5146103ce578063f2fde38b146103e1578063f380e05c146103f4576101b0565b8063715018a6146102f857806378123581146103005780638da5cb5b1461031357806395d89b411461031b578063a22cb46514610323578063a66c34dc14610336578063b88d4fde14610349578063c87b56dd1461035c576101b0565b80632f745c59116101575780632f745c591461026b5780633af2e5da1461027e57806342842e0e1461029157806342966c68146102a45780634f6ccce7146102b75780636352211e146102ca5780636c0360eb146102dd57806370a08231146102e5576101b0565b806301ffc9a7146101b55780630693f961146101de57806306fdde03146101f3578063081812fc14610208578063095ea7b31461021b57806318160ddd1461023057806323b872dd146102455780632706460d14610258575b600080fd5b6101c86101c3366004611ec6565b610407565b6040516101d591906120bf565b60405180910390f35b6101e661042a565b6040516101d59190612027565b6101fb610439565b6040516101d591906120ca565b6101e6610216366004611efe565b6104cf565b61022e610229366004611dc0565b61051b565b005b6102386105b3565b6040516101d5919061274c565b61022e610253366004611c3e565b6105c4565b61022e610266366004611f16565b6105fc565b610238610279366004611dc0565b610634565b6101c861028c366004611f3d565b61065f565b61022e61029f366004611c3e565b61067f565b61022e6102b2366004611efe565b61069a565b6102386102c5366004611efe565b610755565b6101e66102d8366004611efe565b61076b565b6101fb610793565b6102386102f3366004611bea565b6107f4565b61022e61083d565b6101e661030e366004611efe565b6108bc565b6101e66108d7565b6101fb6108e6565b61022e610331366004611d36565b610947565b61022e610344366004611f16565b610a15565b61022e610357366004611c7e565b610a49565b6101fb61036a366004611efe565b610a88565b61022e61037d366004611deb565b610bd2565b6101c8610390366004611f16565b610ca9565b6102386103a3366004611d67565b610cdf565b61022e6103b6366004611efe565b610d16565b6101c86103c9366004611d79565b610d6f565b6101c86103dc366004611c06565b610df4565b61022e6103ef366004611bea565b610e22565b61022e610402366004611bea565b610ed8565b6001600160e01b0319811660009081526002602052604090205460ff165b919050565b6001546001600160a01b031681565b60088054604080516020601f60026000196101006001881615020190951694909404938401819004810282018101909252828152606093909290918301828280156104c55780601f1061049a576101008083540402835291602001916104c5565b820191906000526020600020905b8154815290600101906020018083116104a857829003601f168201915b5050505050905090565b60006104da82610f2f565b6104ff5760405162461bcd60e51b81526004016104f6906124f5565b60405180910390fd5b506000908152600660205260409020546001600160a01b031690565b60006105268261076b565b9050806001600160a01b0316836001600160a01b0316141561055a5760405162461bcd60e51b81526004016104f690612650565b806001600160a01b031661056c610f3c565b6001600160a01b031614806105885750610588816103dc610f3c565b6105a45760405162461bcd60e51b81526004016104f6906123a5565b6105ae8383610f40565b505050565b60006105bf6004610fae565b905090565b6105d56105cf610f3c565b82610fb9565b6105f15760405162461bcd60e51b81526004016104f690612691565b6105ae83838361103e565b6001546001600160a01b031633146106265760405162461bcd60e51b81526004016104f690612171565b610630828261113a565b5050565b6001600160a01b03821660009081526003602052604081206106569083611178565b90505b92915050565b600c60209081526000928352604080842090915290825290205460ff1681565b6105ae83838360405180602001604052806000815250610a49565b336106a48261076b565b6001600160a01b0316146106ca5760405162461bcd60e51b81526004016104f690612719565b6000818152600d6020526040812080546001600160a01b03191690556106f190829061113a565b6106fc81600161113a565b61070781600261113a565b61071281600361113a565b61071b81611184565b7fb8c497fa4677498ae2d340c571843eb8d86a01494195a7240016b28f83e9573d8160405161074a919061274c565b60405180910390a150565b60008061076360048461123f565b509392505050565b600061065982604051806060016040528060298152602001612806602991396004919061125b565b600b8054604080516020601f60026000196101006001881615020190951694909404938401819004810282018101909252828152606093909290918301828280156104c55780601f1061049a576101008083540402835291602001916104c5565b60006001600160a01b03821661081c5760405162461bcd60e51b81526004016104f6906123fd565b6001600160a01b038216600090815260036020526040902061065990610fae565b610845610f3c565b6000546001600160a01b039081169116146108725760405162461bcd60e51b81526004016104f690612541565b600080546040516001600160a01b03909116907f8be0079c531659141344cd1fd0a4f28419497f9722a3daafe3b4186f6b6457e0908390a3600080546001600160a01b0319169055565b600d602052600090815260409020546001600160a01b031681565b6000546001600160a01b031690565b60098054604080516020601f60026000196101006001881615020190951694909404938401819004810282018101909252828152606093909290918301828280156104c55780601f1061049a576101008083540402835291602001916104c5565b61094f610f3c565b6001600160a01b0316826001600160a01b031614156109805760405162461bcd60e51b81526004016104f690612289565b806007600061098d610f3c565b6001600160a01b03908116825260208083019390935260409182016000908120918716808252919093529120805460ff1916921515929092179091556109d1610f3c565b6001600160a01b03167f17307eab39ab6107e8899845ad3d59bd9653f200f220920489ca2b5937696c3183604051610a0991906120bf565b60405180910390a35050565b6001546001600160a01b03163314610a3f5760405162461bcd60e51b81526004016104f690612171565b6106308282611268565b610a5a610a54610f3c565b83610fb9565b610a765760405162461bcd60e51b81526004016104f690612691565b610a8284848484611285565b50505050565b6060610a9382610f2f565b610aaf5760405162461bcd60e51b81526004016104f6906125bf565b6000828152600a602090815260409182902080548351601f6002600019610100600186161502019093169290920491820184900484028101840190945280845260609392830182828015610b445780601f10610b1957610100808354040283529160200191610b44565b820191906000526020600020905b815481529060010190602001808311610b2757829003601f168201915b5050600b5493945050505060026000196101006001841615020190911604610b6d579050610425565b805115610b9f57600b81604051602001610b88929190611fa6565b604051602081830303815290604052915050610425565b600b610baa846112b8565b604051602001610bbb929190611fa6565b604051602081830303815290604052915050919050565b610bdd836000610ca9565b610bf95760405162461bcd60e51b81526004016104f6906124be565b33610c038461076b565b6001600160a01b031614610c295760405162461bcd60e51b81526004016104f690612719565b6000838152600d60205260409020546001600160a01b03828116911614610c625760405162461bcd60e51b81526004016104f69061234e565b6000610c6e8583611393565b905060005b8351811015610ca157610c9982858381518110610c8c57fe5b6020026020010151611268565b600101610c73565b505050505050565b6000828152600c6020526040812081836003811115610cc457fe5b815260208101919091526040016000205460ff169392505050565b6001546000906001600160a01b03163314610d0c5760405162461bcd60e51b81526004016104f690612171565b6106568383611393565b6001546001600160a01b03163314610d405760405162461bcd60e51b81526004016104f690612171565b610d4b816000611268565b610d56816001611268565b610d61816002611268565b610d6c816003611268565b50565b6000805b610d7c856107f4565b811015610de757836001600160a01b0316600d6000610d9b8885610634565b81526020810191909152604001600020546001600160a01b0316148015610dd05750610dd0610dca8683610634565b84610ca9565b15610ddf576001915050610ded565b600101610d73565b50600090505b9392505050565b6001600160a01b03918216600090815260076020908152604080832093909416825291909152205460ff1690565b610e2a610f3c565b6000546001600160a01b03908116911614610e575760405162461bcd60e51b81526004016104f690612541565b6001600160a01b038116610e7d5760405162461bcd60e51b81526004016104f6906121c8565b600080546040516001600160a01b03808516939216917f8be0079c531659141344cd1fd0a4f28419497f9722a3daafe3b4186f6b6457e091a3600080546001600160a01b0319166001600160a01b0392909216919091179055565b610ee0610f3c565b6000546001600160a01b03908116911614610f0d5760405162461bcd60e51b81526004016104f690612541565b600180546001600160a01b0319166001600160a01b0392909216919091179055565b6000610659600483611417565b3390565b600081815260066020526040902080546001600160a01b0319166001600160a01b0384169081179091558190610f758261076b565b6001600160a01b03167f8c5be1e5ebec7d5bd14f71427d1e84f3dd0314c0f7b2291e5b200ac8c7c3b92560405160405180910390a45050565b600061065982611423565b6000610fc482610f2f565b610fe05760405162461bcd60e51b81526004016104f690612302565b6000610feb8361076b565b9050806001600160a01b0316846001600160a01b031614806110265750836001600160a01b031661101b846104cf565b6001600160a01b0316145b8061103657506110368185610df4565b949350505050565b826001600160a01b03166110518261076b565b6001600160a01b0316146110775760405162461bcd60e51b81526004016104f690612576565b6001600160a01b03821661109d5760405162461bcd60e51b81526004016104f690612245565b6110a8838383611427565b6110b3600082610f40565b6001600160a01b03831660009081526003602052604090206110d590826114be565b506001600160a01b03821660009081526003602052604090206110f890826114ca565b50611105600482846114d6565b5080826001600160a01b0316846001600160a01b031660008051602061282f83398151915260405160405180910390a4505050565b6000828152600c602052604081208183600381111561115557fe5b81526020810191909152604001600020805460ff19169115159190911790555050565b600061065683836114ec565b600061118f8261076b565b905061119d81600084611427565b6111a8600083610f40565b6000828152600a602052604090205460026000196101006001841615020190911604156111e6576000828152600a602052604081206111e691611b78565b6001600160a01b038116600090815260036020526040902061120890836114be565b50611214600483611531565b5060405182906000906001600160a01b0384169060008051602061282f833981519152908390a45050565b600080808061124e868661153d565b9097909650945050505050565b6000611036848484611599565b6000828152600c6020526040812060019183600381111561115557fe5b61129084848461103e565b61129c848484846115f8565b610a825760405162461bcd60e51b81526004016104f69061211f565b6060816112dd57506040805180820190915260018152600360fc1b6020820152610425565b8160005b81156112f557600101600a820491506112e1565b60608167ffffffffffffffff8111801561130e57600080fd5b506040519080825280601f01601f191660200182016040528015611339576020820181803683370190505b50859350905060001982015b831561138a57600a840660300160f81b8282806001900393508151811061136857fe5b60200101906001600160f81b031916908160001a905350600a84049350611345565b50949350505050565b60008061139e6105b3565b60010190506113ad84826116d7565b6000818152600d60205260409081902080546001600160a01b0319166001600160a01b038616179055517fd4869c42292bdddc9aab69d56fb48496b495ebdc7d09dcb9979d10ebb21025cf906114089086908490879061209c565b60405180910390a19392505050565b600061065683836116f1565b5490565b6114328383836105ae565b6001600160a01b0383161580159061145257506001600160a01b03821615155b156105ae57611462816001610ca9565b61147e5760405162461bcd60e51b81526004016104f69061260e565b7f21141798e799a89effd25c61078f7d75d4bdc3a58aa15da24f720f282983c8268383836040516114b193929190612078565b60405180910390a1505050565b60006106568383611709565b600061065683836117cf565b600061103684846001600160a01b038516611819565b8154600090821061150f5760405162461bcd60e51b81526004016104f6906120dd565b82600001828154811061151e57fe5b9060005260206000200154905092915050565b600061065683836118b0565b8154600090819083106115625760405162461bcd60e51b81526004016104f690612447565b600084600001848154811061157357fe5b906000526020600020906002020190508060000154816001015492509250509250929050565b600082815260018401602052604081205482816115c95760405162461bcd60e51b81526004016104f691906120ca565b508460000160018203815481106115dc57fe5b9060005260206000209060020201600101549150509392505050565b600061160c846001600160a01b0316611984565b61161857506001611036565b60606116a0630a85bd0160e11b61162d610f3c565b888787604051602401611643949392919061203b565b604051602081830303815290604052906001600160e01b0319166020820180516001600160e01b0383818316178352505050506040518060600160405280603281526020016127d4603291396001600160a01b038816919061198a565b90506000818060200190518101906116b89190611ee2565b6001600160e01b031916630a85bd0160e11b1492505050949350505050565b610630828260405180602001604052806000815250611999565b60009081526001919091016020526040902054151590565b600081815260018301602052604081205480156117c5578354600019808301919081019060009087908390811061173c57fe5b906000526020600020015490508087600001848154811061175957fe5b60009182526020808320909101929092558281526001898101909252604090209084019055865487908061178957fe5b60019003818190600052602060002001600090559055866001016000878152602001908152602001600020600090556001945050505050610659565b6000915050610659565b60006117db83836116f1565b61181157508154600181810184556000848152602080822090930184905584548482528286019093526040902091909155610659565b506000610659565b60008281526001840160205260408120548061187e575050604080518082018252838152602080820184815286546001818101895560008981528481209551600290930290950191825591519082015586548684528188019092529290912055610ded565b8285600001600183038154811061189157fe5b9060005260206000209060020201600101819055506000915050610ded565b600081815260018301602052604081205480156117c557835460001980830191908101906000908790839081106118e357fe5b906000526020600020906002020190508087600001848154811061190357fe5b60009182526020808320845460029093020191825560019384015491840191909155835482528983019052604090209084019055865487908061194257fe5b60008281526020808220600260001990940193840201828155600190810183905592909355888152898201909252604082209190915594506106599350505050565b3b151590565b606061103684846000856119cc565b6119a38383611a8d565b6119b060008484846115f8565b6105ae5760405162461bcd60e51b81526004016104f69061211f565b6060824710156119ee5760405162461bcd60e51b81526004016104f6906122bc565b6119f785611984565b611a135760405162461bcd60e51b81526004016104f6906126e2565b60006060866001600160a01b03168587604051611a309190611f8a565b60006040518083038185875af1925050503d8060008114611a6d576040519150601f19603f3d011682016040523d82523d6000602084013e611a72565b606091505b5091509150611a82828286611b3f565b979650505050505050565b6001600160a01b038216611ab35760405162461bcd60e51b81526004016104f690612489565b611abc81610f2f565b15611ad95760405162461bcd60e51b81526004016104f69061220e565b611ae560008383611427565b6001600160a01b0382166000908152600360205260409020611b0790826114ca565b50611b14600482846114d6565b5060405181906001600160a01b0384169060009060008051602061282f833981519152908290a45050565b60608315611b4e575081610ded565b825115611b5e5782518084602001fd5b8160405162461bcd60e51b81526004016104f691906120ca565b50805460018160011615610100020316600290046000825580601f10611b9e5750610d6c565b601f016020900490600052602060002090810190610d6c91905b80821115611bcc5760008155600101611bb8565b5090565b8035610659816127a8565b80356004811061065957600080fd5b600060208284031215611bfb578081fd5b8135610ded816127a8565b60008060408385031215611c18578081fd5b8235611c23816127a8565b91506020830135611c33816127a8565b809150509250929050565b600080600060608486031215611c52578081fd5b8335611c5d816127a8565b92506020840135611c6d816127a8565b929592945050506040919091013590565b60008060008060808587031215611c93578081fd5b8435611c9e816127a8565b9350602085810135611caf816127a8565b935060408601359250606086013567ffffffffffffffff80821115611cd2578384fd5b818801915088601f830112611ce5578384fd5b813581811115611cf3578485fd5b611d05601f8201601f19168501612755565b91508082528984828501011115611d1a578485fd5b8084840185840137810190920192909252939692955090935050565b60008060408385031215611d48578182fd5b8235611d53816127a8565b915060208301358015158114611c33578182fd5b60008060408385031215611c18578182fd5b600080600060608486031215611d8d578283fd5b8335611d98816127a8565b92506020840135611da8816127a8565b9150611db78560408601611bdb565b90509250925092565b60008060408385031215611dd2578182fd5b8235611ddd816127a8565b946020939093013593505050565b60008060008060808587031215611e00578384fd5b8435611e0b816127a8565b93506020858101359350604086013567ffffffffffffffff80821115611e2f578485fd5b818801915088601f830112611e42578485fd5b813581811115611e50578586fd5b8381029150611e60848301612755565b8181528481019084860184860187018d1015611e7a578889fd5b8895505b83861015611ea457611e908d82611bdb565b835260019590950194918601918601611e7e565b50809750505050505050611ebb8660608701611bd0565b905092959194509250565b600060208284031215611ed7578081fd5b8135610ded816127bd565b600060208284031215611ef3578081fd5b8151610ded816127bd565b600060208284031215611f0f578081fd5b5035919050565b60008060408385031215611f28578081fd5b82359150602083013560048110611c33578182fd5b60008060408385031215611f4f578182fd5b50508035926020909101359150565b60008151808452611f7681602086016020860161277c565b601f01601f19169290920160200192915050565b60008251611f9c81846020870161277c565b9190910192915050565b6000808454600180821660008114611fc55760018114611fdc5761200b565b60ff198316865260028304607f168601935061200b565b600283048886526020808720875b838110156120035781548a820152908501908201611fea565b505050860193505b505050835161201e81836020880161277c565b01949350505050565b6001600160a01b0391909116815260200190565b6001600160a01b038581168252841660208201526040810183905260806060820181905260009061206e90830184611f5e565b9695505050505050565b6001600160a01b039384168152919092166020820152604081019190915260600190565b6001600160a01b0393841681526020810192909252909116604082015260600190565b901515815260200190565b6000602082526106566020830184611f5e565b60208082526022908201527f456e756d657261626c655365743a20696e646578206f7574206f6620626f756e604082015261647360f01b606082015260800190565b60208082526032908201527f4552433732313a207472616e7366657220746f206e6f6e20455243373231526560408201527131b2b4bb32b91034b6b83632b6b2b73a32b960711b606082015260800190565b60208082526037908201527f4f6e6c79207468652063757272656e74206f63746f6261792076657273696f6e6040820152761031b0b7103ab9b2903a3434b990333ab731ba34b7b71760491b606082015260800190565b60208082526026908201527f4f776e61626c653a206e6577206f776e657220697320746865207a65726f206160408201526564647265737360d01b606082015260800190565b6020808252601c908201527f4552433732313a20746f6b656e20616c7265616479206d696e74656400000000604082015260600190565b60208082526024908201527f4552433732313a207472616e7366657220746f20746865207a65726f206164646040820152637265737360e01b606082015260800190565b60208082526019908201527822a9219b99189d1030b8383937bb32903a379031b0b63632b960391b604082015260600190565b60208082526026908201527f416464726573733a20696e73756666696369656e742062616c616e636520666f6040820152651c8818d85b1b60d21b606082015260800190565b6020808252602c908201527f4552433732313a206f70657261746f7220717565727920666f72206e6f6e657860408201526b34b9ba32b73a103a37b5b2b760a11b606082015260800190565b60208082526037908201527f5f746f6b656e4964277320676f7620746f6b656e206973206e6f74207468652060408201527639b0b6b29030b99033b4bb32b7102fb3b7bb2a37b5b2b760491b606082015260800190565b60208082526038908201527f4552433732313a20617070726f76652063616c6c6572206973206e6f74206f776040820152771b995c881b9bdc88185c1c1c9bdd995908199bdc88185b1b60421b606082015260800190565b6020808252602a908201527f4552433732313a2062616c616e636520717565727920666f7220746865207a65604082015269726f206164647265737360b01b606082015260800190565b60208082526022908201527f456e756d657261626c654d61703a20696e646578206f7574206f6620626f756e604082015261647360f01b606082015260800190565b6020808252818101527f4552433732313a206d696e7420746f20746865207a65726f2061646472657373604082015260600190565b6020808252601e908201527f4e6f7420616c6c6f77656420746f206d696e74206e657720746f6b656e730000604082015260600190565b6020808252602c908201527f4552433732313a20617070726f76656420717565727920666f72206e6f6e657860408201526b34b9ba32b73a103a37b5b2b760a11b606082015260800190565b6020808252818101527f4f776e61626c653a2063616c6c6572206973206e6f7420746865206f776e6572604082015260600190565b60208082526029908201527f4552433732313a207472616e73666572206f6620746f6b656e2074686174206960408201526839903737ba1037bbb760b91b606082015260800190565b6020808252602f908201527f4552433732314d657461646174613a2055524920717565727920666f72206e6f60408201526e3732bc34b9ba32b73a103a37b5b2b760891b606082015260800190565b60208082526022908201527f4e6f7420616c6c6f77656420746f207472616e73666572207468697320746f6b60408201526132b760f11b606082015260800190565b60208082526021908201527f4552433732313a20617070726f76616c20746f2063757272656e74206f776e656040820152603960f91b606082015260800190565b60208082526031908201527f4552433732313a207472616e736665722063616c6c6572206973206e6f74206f6040820152701ddb995c881b9bdc88185c1c1c9bdd9959607a1b606082015260800190565b6020808252601d908201527f416464726573733a2063616c6c20746f206e6f6e2d636f6e7472616374000000604082015260600190565b602080825260199082015278139bdd081d1a19481bdddb995c881bd98817dd1bdad95b9259603a1b604082015260600190565b90815260200190565b60405181810167ffffffffffffffff8111828210171561277457600080fd5b604052919050565b60005b8381101561279757818101518382015260200161277f565b83811115610a825750506000910152565b6001600160a01b0381168114610d6c57600080fd5b6001600160e01b031981168114610d6c57600080fdfe4552433732313a207472616e7366657220746f206e6f6e20455243373231526563656976657220696d706c656d656e7465724552433732313a206f776e657220717565727920666f72206e6f6e6578697374656e7420746f6b656eddf252ad1be2c89b69c2b068fc378daa952ba7f163c4a11628f55a4df523b3efa264697066735822122005e3e095ca5941774c812b53751e02cfcbc1c23decf7b1cd439a32a1850518fb64736f6c634300060c0033",
  "immutableReferences": {},
  "source": "// SPDX-License-Identifier: MIT\npragma solidity ^0.6.0;\npragma experimental ABIEncoderV2;\n\nimport '@openzeppelin/contracts/token/ERC721/ERC721.sol';\nimport './OctobayStorage.sol';\nimport './OctobayGovToken.sol';\n\n/// @notice OctobayGovNFT tracks all NFTs minted for project owners which allows them to manage governors and create proposals.\n///         They can also mint new NFTs to others and set the permissions on the NFT.\ncontract OctobayGovNFT is OctobayStorage, ERC721 {\n    enum Permission {\n        MINT, // Can mint new NFTs for the associated project\n        TRANSFER, // Can transfer this NFT to another address\n        SET_ISSUE_GOVTOKEN, // Can set the governance token associated with an issue (bounty)\n        CREATE_PROPOSAL // Can create new proposals for this project\n        // e.t.c.\n    }\n\n    event MintNFTForGovTokenEvent(address to, uint256 tokenId, address govTokenAddress);\n    event BurnTokenEvent(uint256 tokenId);\n    event TokenTransferEvent(address from, address to, uint256 tokenId);\n\n    mapping (uint256 => mapping (uint => bool) ) public permissionsByTokenId;\n    mapping (uint256 => OctobayGovToken) public govTokensByTokenId;\n    //Do we need a list of NFTs per gov token?\n\n    constructor(string memory name, string memory symbol) public ERC721(name, symbol) {\n    }\n\n    /// @param _tokenId ID of the NFT to check\n    /// @param _perm Permission to check\n    /// @return Whether the NFT has that permission\n    function hasPermission(uint256 _tokenId, Permission _perm) public view returns(bool) {\n        return permissionsByTokenId[_tokenId][uint(_perm)];\n    }\n\n    /// @notice Grants all permissions to the given NFT\n    /// @param _tokenId ID of the NFT to grant permissions to\n    function grantAllPermissions(uint256 _tokenId) external onlyOctobay {\n        // There's no nice way of looping through enums... :( It's probably better that we do this here though\n        _grantPermission(_tokenId, Permission.MINT);\n        _grantPermission(_tokenId, Permission.TRANSFER);\n        _grantPermission(_tokenId, Permission.SET_ISSUE_GOVTOKEN);\n        _grantPermission(_tokenId, Permission.CREATE_PROPOSAL);\n    }    \n\n    /// @param _tokenId ID of the NFT to grant permission to\n    /// @param _perm Permission to enable\n    function grantPermission(uint256 _tokenId, Permission _perm) external onlyOctobay {\n        _grantPermission(_tokenId, _perm);\n    }\n\n    /// @param _tokenId ID of the NFT to grant permission to\n    /// @param _perm Permission to enable\n    function _grantPermission(uint256 _tokenId, Permission _perm) internal {\n        permissionsByTokenId[_tokenId][uint(_perm)] = true;\n    }\n\n    /// @param _tokenId ID of the NFT to revoke permission from\n    /// @param _perm Permission to revoke\n    function revokePermission(uint256 _tokenId, Permission _perm) external onlyOctobay {\n        _revokePermission(_tokenId, _perm);\n    }\n\n    /// @param _tokenId ID of the NFT to revoke permission from\n    /// @param _perm Permission to revoke\n    function _revokePermission(uint256 _tokenId, Permission _perm) internal  {\n        permissionsByTokenId[_tokenId][uint(_perm)] = false;\n    }\n\n    /// @param _to The address to assign the newly minted NFT to\n    /// @param _govToken The governance token associated with this NFT\n    /// @return The token ID of the newly minted NFT\n    function mintNFTForGovToken(address _to, OctobayGovToken _govToken) external onlyOctobay returns(uint256) {\n        return _mintNFTForGovToken(_to, _govToken);\n    }\n\n    /// @notice Checks whether a user has a given permission for a given governance token\n    /// @param _user Address of user to check for NFT ownership\n    /// @param _govToken The governance token associated with this NFT\n    /// @param _perm The permission we're checking for\n    /// @return Whether the user \n    function userHasPermissionForGovToken(address _user, OctobayGovToken _govToken, Permission _perm) public view returns(bool) {\n        for (uint i=0; i < balanceOf(_user); i++) {\n            if (govTokensByTokenId[tokenOfOwnerByIndex(_user, i)] == _govToken &&\n                hasPermission(tokenOfOwnerByIndex(_user, i), _perm)) {\n                    return true;\n            }\n        }\n\n        return false;\n    }\n\n    /// @notice If an NFT has the MINT permission, the owner can mint a new NFT to someone else based on theirs\n    /// @param _to The address to assign the newly minted NFT to\n    /// @param _tokenId ID of the NFT to be used as a reference for the new NFT\n    /// @param _perms The array of permissions to assign to the new NFT\n    /// @param _govToken The governance token associated with this NFT\n    function mintTokenWithPermissions(address _to, uint256 _tokenId, Permission[] memory _perms, OctobayGovToken _govToken) public {\n        require(hasPermission(_tokenId, Permission.MINT), \"Not allowed to mint new tokens\");\n        require(ownerOf(_tokenId) == msg.sender, \"Not the owner of _tokenId\");\n        require(govTokensByTokenId[_tokenId] == _govToken, \"_tokenId's gov token is not the same as given _govToken\");\n\n        uint256 newTokenId = _mintNFTForGovToken(_to, _govToken);\n        for (uint i=0; i < _perms.length; i++) {\n            _grantPermission(newTokenId, _perms[i]);\n        }\n    }\n\n    /// @param _tokenId ID of the NFT to burn (destroy)\n    function burn(uint256 _tokenId) public {\n        require(ownerOf(_tokenId) == msg.sender, \"Not the owner of _tokenId\");\n        delete govTokensByTokenId[_tokenId];\n        _revokePermission(_tokenId, Permission.MINT);\n        _revokePermission(_tokenId, Permission.TRANSFER);\n        _revokePermission(_tokenId, Permission.SET_ISSUE_GOVTOKEN);\n        _revokePermission(_tokenId, Permission.CREATE_PROPOSAL);\n        _burn(_tokenId);\n        emit BurnTokenEvent(_tokenId);\n    }\n\n    /// @param _from Address of NFT owner\n    /// @param _to Address NFT is being transferred to\n    /// @param _tokenId ID of the NFT\n    function _beforeTokenTransfer(address _from, address _to, uint256 _tokenId) internal override {\n        super._beforeTokenTransfer(_from, _to, _tokenId);\n\n        //Ignore minting and burning\n        if (_from != address(0) && _to != address(0)) {\n            require(hasPermission(_tokenId, Permission.TRANSFER), \"Not allowed to transfer this token\");\n            emit TokenTransferEvent(_from, _to, _tokenId);\n        }\n    }\n\n    /// @param _to The address to assign the newly minted NFT to\n    /// @param _govToken The governance token associated with this NFT\n    /// @return The token ID of the newly minted NFT\n    function _mintNFTForGovToken(address _to, OctobayGovToken _govToken) internal returns(uint256) {\n        uint256 tokenId = totalSupply() + 1;\n        _safeMint(_to, tokenId);\n        govTokensByTokenId[tokenId] = _govToken;\n        emit MintNFTForGovTokenEvent(_to, tokenId, address(_govToken));\n        return tokenId;\n    }    \n}",
  "sourcePath": "/home/mkt/Projects/octobay/contracts/contracts/OctobayGovNFT.sol",
  "compiler": {
    "name": "solc",
    "version": "0.6.12+commit.27d51765.Emscripten.clang"
  },
  "schemaVersion": "3.3.4",
  "updatedAt": "2021-05-31T23:15:14.988Z",
  "devdoc": {
    "kind": "dev",
    "methods": {
      "approve(address,uint256)": {
        "details": "See {IERC721-approve}."
      },
      "balanceOf(address)": {
        "details": "See {IERC721-balanceOf}."
      },
      "baseURI()": {
        "details": "Returns the base URI set via {_setBaseURI}. This will be automatically added as a prefix in {tokenURI} to each token's URI, or to the token ID if no specific URI is set for that token ID."
      },
      "burn(uint256)": {
        "params": {
          "_tokenId": "ID of the NFT to burn (destroy)"
        }
      },
      "getApproved(uint256)": {
        "details": "See {IERC721-getApproved}."
      },
      "grantAllPermissions(uint256)": {
        "params": {
          "_tokenId": "ID of the NFT to grant permissions to"
        }
      },
      "grantPermission(uint256,uint8)": {
        "params": {
          "_perm": "Permission to enable",
          "_tokenId": "ID of the NFT to grant permission to"
        }
      },
      "hasPermission(uint256,uint8)": {
        "params": {
          "_perm": "Permission to check",
          "_tokenId": "ID of the NFT to check"
        },
        "returns": {
          "_0": "Whether the NFT has that permission"
        }
      },
      "isApprovedForAll(address,address)": {
        "details": "See {IERC721-isApprovedForAll}."
      },
      "mintNFTForGovToken(address,address)": {
        "params": {
          "_govToken": "The governance token associated with this NFT",
          "_to": "The address to assign the newly minted NFT to"
        },
        "returns": {
          "_0": "The token ID of the newly minted NFT"
        }
      },
      "mintTokenWithPermissions(address,uint256,uint8[],address)": {
        "params": {
          "_govToken": "The governance token associated with this NFT",
          "_perms": "The array of permissions to assign to the new NFT",
          "_to": "The address to assign the newly minted NFT to",
          "_tokenId": "ID of the NFT to be used as a reference for the new NFT"
        }
      },
      "name()": {
        "details": "See {IERC721Metadata-name}."
      },
      "owner()": {
        "details": "Returns the address of the current owner."
      },
      "ownerOf(uint256)": {
        "details": "See {IERC721-ownerOf}."
      },
      "renounceOwnership()": {
        "details": "Leaves the contract without owner. It will not be possible to call `onlyOwner` functions anymore. Can only be called by the current owner. NOTE: Renouncing ownership will leave the contract without an owner, thereby removing any functionality that is only available to the owner."
      },
      "revokePermission(uint256,uint8)": {
        "params": {
          "_perm": "Permission to revoke",
          "_tokenId": "ID of the NFT to revoke permission from"
        }
      },
      "safeTransferFrom(address,address,uint256)": {
        "details": "See {IERC721-safeTransferFrom}."
      },
      "safeTransferFrom(address,address,uint256,bytes)": {
        "details": "See {IERC721-safeTransferFrom}."
      },
      "setApprovalForAll(address,bool)": {
        "details": "See {IERC721-setApprovalForAll}."
      },
      "supportsInterface(bytes4)": {
        "details": "See {IERC165-supportsInterface}. Time complexity O(1), guaranteed to always use less than 30 000 gas."
      },
      "symbol()": {
        "details": "See {IERC721Metadata-symbol}."
      },
      "tokenByIndex(uint256)": {
        "details": "See {IERC721Enumerable-tokenByIndex}."
      },
      "tokenOfOwnerByIndex(address,uint256)": {
        "details": "See {IERC721Enumerable-tokenOfOwnerByIndex}."
      },
      "tokenURI(uint256)": {
        "details": "See {IERC721Metadata-tokenURI}."
      },
      "totalSupply()": {
        "details": "See {IERC721Enumerable-totalSupply}."
      },
      "transferFrom(address,address,uint256)": {
        "details": "See {IERC721-transferFrom}."
      },
      "transferOwnership(address)": {
        "details": "Transfers ownership of the contract to a new account (`newOwner`). Can only be called by the current owner."
      },
      "userHasPermissionForGovToken(address,address,uint8)": {
        "params": {
          "_govToken": "The governance token associated with this NFT",
          "_perm": "The permission we're checking for",
          "_user": "Address of user to check for NFT ownership"
        },
        "returns": {
          "_0": "Whether the user "
        }
      }
    },
    "version": 1
  },
  "userdoc": {
    "kind": "user",
    "methods": {
      "grantAllPermissions(uint256)": {
        "notice": "Grants all permissions to the given NFT"
      },
      "mintTokenWithPermissions(address,uint256,uint8[],address)": {
        "notice": "If an NFT has the MINT permission, the owner can mint a new NFT to someone else based on theirs"
      },
      "userHasPermissionForGovToken(address,address,uint8)": {
        "notice": "Checks whether a user has a given permission for a given governance token"
      }
    },
    "notice": "OctobayGovNFT tracks all NFTs minted for project owners which allows them to manage governors and create proposals.         They can also mint new NFTs to others and set the permissions on the NFT.",
    "version": 1
  }
}