{
  "contractName": "OctobayStorage",
  "abi": [
    {
      "anonymous": false,
      "inputs": [
        {
          "indexed": true,
          "internalType": "address",
          "name": "previousOwner",
          "type": "address"
        },
        {
          "indexed": true,
          "internalType": "address",
          "name": "newOwner",
          "type": "address"
        }
      ],
      "name": "OwnershipTransferred",
      "type": "event"
    },
    {
      "inputs": [],
      "name": "octobay",
      "outputs": [
        {
          "internalType": "address",
          "name": "",
          "type": "address"
        }
      ],
      "stateMutability": "view",
      "type": "function"
    },
    {
      "inputs": [],
      "name": "owner",
      "outputs": [
        {
          "internalType": "address",
          "name": "",
          "type": "address"
        }
      ],
      "stateMutability": "view",
      "type": "function"
    },
    {
      "inputs": [],
      "name": "renounceOwnership",
      "outputs": [],
      "stateMutability": "nonpayable",
      "type": "function"
    },
    {
      "inputs": [
        {
          "internalType": "address",
          "name": "newOwner",
          "type": "address"
        }
      ],
      "name": "transferOwnership",
      "outputs": [],
      "stateMutability": "nonpayable",
      "type": "function"
    },
    {
      "inputs": [
        {
          "internalType": "address",
          "name": "_octobay",
          "type": "address"
        }
      ],
      "name": "setOctobay",
      "outputs": [],
      "stateMutability": "nonpayable",
      "type": "function"
    }
  ],
  "bytecode": "0x608060405234801561001057600080fd5b50600061001b61006a565b600080546001600160a01b0319166001600160a01b0383169081178255604051929350917f8be0079c531659141344cd1fd0a4f28419497f9722a3daafe3b4186f6b6457e0908290a35061006e565b3390565b61035c8061007d6000396000f3fe608060405234801561001057600080fd5b50600436106100575760003560e01c80630693f9611461005c578063715018a61461007a5780638da5cb5b14610084578063f2fde38b1461008c578063f380e05c1461009f575b600080fd5b6100646100b2565b6040516100719190610297565b60405180910390f35b6100826100c1565b005b610064610149565b61008261009a366004610269565b610158565b6100826100ad366004610269565b61020e565b6001546001600160a01b031681565b6100c9610265565b6000546001600160a01b039081169116146100ff5760405162461bcd60e51b81526004016100f6906102f1565b60405180910390fd5b600080546040516001600160a01b03909116907f8be0079c531659141344cd1fd0a4f28419497f9722a3daafe3b4186f6b6457e0908390a3600080546001600160a01b0319169055565b6000546001600160a01b031690565b610160610265565b6000546001600160a01b0390811691161461018d5760405162461bcd60e51b81526004016100f6906102f1565b6001600160a01b0381166101b35760405162461bcd60e51b81526004016100f6906102ab565b600080546040516001600160a01b03808516939216917f8be0079c531659141344cd1fd0a4f28419497f9722a3daafe3b4186f6b6457e091a3600080546001600160a01b0319166001600160a01b0392909216919091179055565b610216610265565b6000546001600160a01b039081169116146102435760405162461bcd60e51b81526004016100f6906102f1565b600180546001600160a01b0319166001600160a01b0392909216919091179055565b3390565b60006020828403121561027a578081fd5b81356001600160a01b0381168114610290578182fd5b9392505050565b6001600160a01b0391909116815260200190565b60208082526026908201527f4f776e61626c653a206e6577206f776e657220697320746865207a65726f206160408201526564647265737360d01b606082015260800190565b6020808252818101527f4f776e61626c653a2063616c6c6572206973206e6f7420746865206f776e657260408201526060019056fea264697066735822122047d4a8d5ea903efbf6b2e7d85b4a654e9291c1650995da997ef602ce2778007f64736f6c634300060c0033",
  "immutableReferences": {},
  "source": "// SPDX-License-Identifier: MIT\npragma solidity ^0.6.0;\npragma experimental ABIEncoderV2;\n\nimport '@openzeppelin/contracts/access/Ownable.sol';\n\n// This contract is a base for different modules,\n// that can be passed on to new Octobay versions.\ncontract OctobayStorage is Ownable {\n\n  address public octobay;\n\n  modifier onlyOctobay() {\n    require(msg.sender == octobay, 'Only the current octobay version can use this function.');\n    _;\n  }\n\n  function setOctobay(address _octobay) onlyOwner public {\n    octobay = _octobay;\n  }\n\n}",
  "sourcePath": "/home/mkt/Projects/octobay/contracts/contracts/OctobayStorage.sol",
  "compiler": {
    "name": "solc",
    "version": "0.6.12+commit.27d51765.Emscripten.clang"
  },
  "schemaVersion": "3.3.4",
  "updatedAt": "2021-05-31T23:15:15.030Z",
  "devdoc": {
    "kind": "dev",
    "methods": {
      "owner()": {
        "details": "Returns the address of the current owner."
      },
      "renounceOwnership()": {
        "details": "Leaves the contract without owner. It will not be possible to call `onlyOwner` functions anymore. Can only be called by the current owner. NOTE: Renouncing ownership will leave the contract without an owner, thereby removing any functionality that is only available to the owner."
      },
      "transferOwnership(address)": {
        "details": "Transfers ownership of the contract to a new account (`newOwner`). Can only be called by the current owner."
      }
    },
    "version": 1
  },
  "userdoc": {
    "kind": "user",
    "methods": {},
    "version": 1
  }
}