{
  "contractName": "OracleStorage",
  "abi": [
    {
      "anonymous": false,
      "inputs": [
        {
          "indexed": false,
          "internalType": "address",
          "name": "oracle",
          "type": "address"
        },
        {
          "indexed": false,
          "internalType": "string",
          "name": "name",
          "type": "string"
        }
      ],
      "name": "OracleAddedEvent",
      "type": "event"
    },
    {
      "anonymous": false,
      "inputs": [
        {
          "indexed": false,
          "internalType": "address",
          "name": "oracle",
          "type": "address"
        },
        {
          "indexed": false,
          "internalType": "string",
          "name": "name",
          "type": "string"
        },
        {
          "indexed": false,
          "internalType": "bytes32",
          "name": "id",
          "type": "bytes32"
        }
      ],
      "name": "OracleJobAddedEvent",
      "type": "event"
    },
    {
      "anonymous": false,
      "inputs": [
        {
          "indexed": false,
          "internalType": "address",
          "name": "oracle",
          "type": "address"
        },
        {
          "indexed": false,
          "internalType": "string",
          "name": "name",
          "type": "string"
        },
        {
          "indexed": false,
          "internalType": "bytes32",
          "name": "id",
          "type": "bytes32"
        }
      ],
      "name": "OracleJobRemovedEvent",
      "type": "event"
    },
    {
      "anonymous": false,
      "inputs": [
        {
          "indexed": false,
          "internalType": "address",
          "name": "oracle",
          "type": "address"
        },
        {
          "indexed": false,
          "internalType": "string",
          "name": "name",
          "type": "string"
        }
      ],
      "name": "OracleNameChangedEvent",
      "type": "event"
    },
    {
      "anonymous": false,
      "inputs": [
        {
          "indexed": false,
          "internalType": "address",
          "name": "oracle",
          "type": "address"
        }
      ],
      "name": "OracleRemovedEvent",
      "type": "event"
    },
    {
      "anonymous": false,
      "inputs": [
        {
          "indexed": true,
          "internalType": "address",
          "name": "previousOwner",
          "type": "address"
        },
        {
          "indexed": true,
          "internalType": "address",
          "name": "newOwner",
          "type": "address"
        }
      ],
      "name": "OwnershipTransferred",
      "type": "event"
    },
    {
      "inputs": [],
      "name": "octobay",
      "outputs": [
        {
          "internalType": "address",
          "name": "",
          "type": "address"
        }
      ],
      "stateMutability": "view",
      "type": "function"
    },
    {
      "inputs": [
        {
          "internalType": "address",
          "name": "",
          "type": "address"
        },
        {
          "internalType": "uint256",
          "name": "",
          "type": "uint256"
        }
      ],
      "name": "oracleJobNames",
      "outputs": [
        {
          "internalType": "string",
          "name": "",
          "type": "string"
        }
      ],
      "stateMutability": "view",
      "type": "function"
    },
    {
      "inputs": [
        {
          "internalType": "address",
          "name": "",
          "type": "address"
        }
      ],
      "name": "oracles",
      "outputs": [
        {
          "internalType": "string",
          "name": "name",
          "type": "string"
        }
      ],
      "stateMutability": "view",
      "type": "function"
    },
    {
      "inputs": [],
      "name": "owner",
      "outputs": [
        {
          "internalType": "address",
          "name": "",
          "type": "address"
        }
      ],
      "stateMutability": "view",
      "type": "function"
    },
    {
      "inputs": [
        {
          "internalType": "uint256",
          "name": "",
          "type": "uint256"
        }
      ],
      "name": "registeredOracles",
      "outputs": [
        {
          "internalType": "address",
          "name": "",
          "type": "address"
        }
      ],
      "stateMutability": "view",
      "type": "function"
    },
    {
      "inputs": [],
      "name": "renounceOwnership",
      "outputs": [],
      "stateMutability": "nonpayable",
      "type": "function"
    },
    {
      "inputs": [
        {
          "internalType": "address",
          "name": "_octobay",
          "type": "address"
        }
      ],
      "name": "setOctobay",
      "outputs": [],
      "stateMutability": "nonpayable",
      "type": "function"
    },
    {
      "inputs": [
        {
          "internalType": "address",
          "name": "newOwner",
          "type": "address"
        }
      ],
      "name": "transferOwnership",
      "outputs": [],
      "stateMutability": "nonpayable",
      "type": "function"
    },
    {
      "inputs": [
        {
          "internalType": "address",
          "name": "_oracle",
          "type": "address"
        },
        {
          "internalType": "string",
          "name": "_name",
          "type": "string"
        },
        {
          "internalType": "string[]",
          "name": "_jobNames",
          "type": "string[]"
        },
        {
          "components": [
            {
              "internalType": "bytes32",
              "name": "id",
              "type": "bytes32"
            },
            {
              "internalType": "uint256",
              "name": "fee",
              "type": "uint256"
            }
          ],
          "internalType": "struct OracleStorage.Job[]",
          "name": "_jobs",
          "type": "tuple[]"
        }
      ],
      "name": "addOracle",
      "outputs": [],
      "stateMutability": "nonpayable",
      "type": "function"
    },
    {
      "inputs": [
        {
          "internalType": "address",
          "name": "_oracle",
          "type": "address"
        }
      ],
      "name": "removeOracle",
      "outputs": [],
      "stateMutability": "nonpayable",
      "type": "function"
    },
    {
      "inputs": [
        {
          "internalType": "address",
          "name": "_oracle",
          "type": "address"
        },
        {
          "internalType": "string",
          "name": "_name",
          "type": "string"
        }
      ],
      "name": "changeOracleName",
      "outputs": [],
      "stateMutability": "nonpayable",
      "type": "function"
    },
    {
      "inputs": [
        {
          "internalType": "address",
          "name": "_oracle",
          "type": "address"
        },
        {
          "internalType": "string",
          "name": "_jobName",
          "type": "string"
        },
        {
          "components": [
            {
              "internalType": "bytes32",
              "name": "id",
              "type": "bytes32"
            },
            {
              "internalType": "uint256",
              "name": "fee",
              "type": "uint256"
            }
          ],
          "internalType": "struct OracleStorage.Job",
          "name": "_job",
          "type": "tuple"
        }
      ],
      "name": "addOracleJob",
      "outputs": [],
      "stateMutability": "nonpayable",
      "type": "function"
    },
    {
      "inputs": [
        {
          "internalType": "address",
          "name": "_oracle",
          "type": "address"
        },
        {
          "internalType": "string",
          "name": "_jobName",
          "type": "string"
        }
      ],
      "name": "removeOracleJob",
      "outputs": [],
      "stateMutability": "nonpayable",
      "type": "function"
    },
    {
      "inputs": [
        {
          "internalType": "address",
          "name": "_oracle",
          "type": "address"
        }
      ],
      "name": "getOracleName",
      "outputs": [
        {
          "internalType": "string",
          "name": "",
          "type": "string"
        }
      ],
      "stateMutability": "view",
      "type": "function"
    },
    {
      "inputs": [
        {
          "internalType": "address",
          "name": "_oracle",
          "type": "address"
        },
        {
          "internalType": "string",
          "name": "_job",
          "type": "string"
        }
      ],
      "name": "getOracleJob",
      "outputs": [
        {
          "internalType": "bytes32",
          "name": "",
          "type": "bytes32"
        },
        {
          "internalType": "uint256",
          "name": "",
          "type": "uint256"
        }
      ],
      "stateMutability": "view",
      "type": "function"
    },
    {
      "inputs": [
        {
          "internalType": "address",
          "name": "_oracle",
          "type": "address"
        }
      ],
      "name": "oracleExists",
      "outputs": [
        {
          "internalType": "bool",
          "name": "",
          "type": "bool"
        }
      ],
      "stateMutability": "view",
      "type": "function"
    },
    {
      "inputs": [
        {
          "internalType": "address",
          "name": "_oracle",
          "type": "address"
        },
        {
          "internalType": "string",
          "name": "_jobName",
          "type": "string"
        }
      ],
      "name": "oracleJobExists",
      "outputs": [
        {
          "internalType": "bool",
          "name": "",
          "type": "bool"
        }
      ],
      "stateMutability": "view",
      "type": "function"
    }
  ],
  "bytecode": "0x608060405234801561001057600080fd5b50600061001b61006a565b600080546001600160a01b0319166001600160a01b0383169081178255604051929350917f8be0079c531659141344cd1fd0a4f28419497f9722a3daafe3b4186f6b6457e0908290a35061006e565b3390565b61191f8061007d6000396000f3fe608060405234801561001057600080fd5b50600436106100eb5760003560e01c8063715018a611610092578063715018a6146101a25780638da5cb5b146101aa5780639dd1e44b146101b2578063addd5099146101d2578063bb4828a4146101e5578063f2fde38b14610206578063f380e05c14610219578063fdc85fc41461022c578063fee40f861461023f576100eb565b80630693f961146100f05780632bbba3361461010e5780633663865d146101235780633d10c2e0146101435780634194d5ee1461015657806342aaf11b1461016957806348297f591461017c578063583d789b1461018f575b600080fd5b6100f8610252565b6040516101059190611566565b60405180910390f35b61012161011c3660046113fa565b610261565b005b61013661013136600461129b565b610370565b604051610105919061169a565b6100f8610151366004611488565b61041b565b61013661016436600461145e565b610442565b6101216101773660046112bd565b6104f6565b61012161018a36600461130e565b610642565b61012161019d3660046112bd565b6108cc565b6101216109a5565b6100f8610a24565b6101c56101c03660046112bd565b610a33565b6040516101059190611681565b6101366101e036600461129b565b610a7b565b6101f86101f33660046112bd565b610b1c565b60405161010592919061168c565b61012161021436600461129b565b610b92565b61012161022736600461129b565b610c48565b61012161023a36600461129b565b610c9f565b6101c561024d36600461129b565b610f5c565b6001546001600160a01b031681565b6001546001600160a01b031633146102945760405162461bcd60e51b815260040161028b906116cd565b60405180910390fd5b6001600160a01b0384166000908152600360205260409020548490600260001961010060018416150201909116046102de5760405162461bcd60e51b815260040161028b90611806565b6001600160a01b03851660009081526003602052604090819020905183916001019061030d90879087906114ca565b90815260405190819003602090810182208351815592015160019092019190915582517fefbd286a2b0fe9b84350721258a7c25f0b6e82d965ab2076f460edbb897d05db91610361918891889188916115a8565b60405180910390a15050505050565b6001600160a01b03811660009081526003602090815260409182902080548351601f600260001961010060018616150201909316929092049182018490048402810184019094528084526060939283018282801561040f5780601f106103e45761010080835404028352916020019161040f565b820191906000526020600020905b8154815290600101906020018083116103f257829003601f168201915b50505050509050919050565b6002818154811061042857fe5b6000918252602090912001546001600160a01b0316905081565b6004602052816000526040600020818154811061045b57fe5b600091825260209182902001805460408051601f600260001961010060018716150201909416939093049283018590048502810185019091528181529450909250908301828280156104ee5780601f106104c3576101008083540402835291602001916104ee565b820191906000526020600020905b8154815290600101906020018083116104d157829003601f168201915b505050505081565b6001546001600160a01b031633146105205760405162461bcd60e51b815260040161028b906116cd565b6001600160a01b03831660009081526003602052604090205483906002600019610100600184161502019091160461056a5760405162461bcd60e51b815260040161028b90611806565b7f422ab446a3ecfb6af9df8c42c16bbfe0fff9d710bc89b8b7185f9cb0ab71250b84848460036000896001600160a01b03166001600160a01b0316815260200190815260200160002060010187876040516105c69291906114ca565b908152604051908190036020018120546105e2949392916115a8565b60405180910390a160036000856001600160a01b03166001600160a01b0316815260200190815260200160002060010183836040516106229291906114ca565b908152604051908190036020019020600080825560019091015550505050565b6001546001600160a01b0316331461066c5760405162461bcd60e51b815260040161028b906116cd565b6001600160a01b03851660009081526003602052604090205460026000196101006001841615020190911604156106b55760405162461bcd60e51b815260040161028b9061176a565b60008151116106d65760405162461bcd60e51b815260040161028b906117e5565b80518251146106f75760405162461bcd60e51b815260040161028b90611799565b604080516020601f8601819004810282018301835281018581529091829190879087908190850183828082843760009201829052509390945250506001600160a01b03881681526003602090815260409091208351805191935061075f928492910190610f90565b5090505060005b825181101561084c5781818151811061077b57fe5b602002602001015160036000886001600160a01b03166001600160a01b031681526020019081526020016000206001018483815181106107b757fe5b60200260200101516040516107cc91906114da565b908152604080516020928190038301902083518155928201516001909301929092556001600160a01b0388166000908152600490915220835184908390811061081157fe5b602090810291909101810151825460018101845560009384529282902081516108439491909101929190910190610f90565b50600101610766565b50600280546001810182556000919091527f405787fa12a823e0f2b7631cc41b3ba8828b3321ca811111fa75cd3aa3bb5ace0180546001600160a01b0319166001600160a01b0387161790556040517ff15d7eb8bd12280c83c1313c387aff8a2197d17c987dc7a28bcb4d3d545f57c6906103619087908790879061157a565b6001546001600160a01b031633146108f65760405162461bcd60e51b815260040161028b906116cd565b6001600160a01b0383166000908152600360205260409020548390600260001961010060018416150201909116046109405760405162461bcd60e51b815260040161028b90611806565b6001600160a01b038416600090815260036020526040902061096390848461100e565b507f4bd0bcc6e1bae95de7a8726b9cd8b5a6791b2a5dc70e3bc931641c050929b8db8484846040516109979392919061157a565b60405180910390a150505050565b6109ad610f8c565b6000546001600160a01b039081169116146109da5760405162461bcd60e51b815260040161028b90611833565b600080546040516001600160a01b03909116907f8be0079c531659141344cd1fd0a4f28419497f9722a3daafe3b4186f6b6457e0908390a3600080546001600160a01b0319169055565b6000546001600160a01b031690565b6001600160a01b0383166000908152600360205260408082209051829160010190610a6190869086906114ca565b908152604051908190036020019020541190509392505050565b60036020908152600091825260409182902080548351601f60026000196101006001861615020190931692909204918201849004840281018401909452808452909291839190830182828015610b125780601f10610ae757610100808354040283529160200191610b12565b820191906000526020600020905b815481529060010190602001808311610af557829003601f168201915b5050505050905081565b600080610b2761107c565b60036000876001600160a01b03166001600160a01b031681526020019081526020016000206001018585604051610b5f9291906114ca565b90815260408051602092819003830181208183019092528154808252600190920154920182905297909650945050505050565b610b9a610f8c565b6000546001600160a01b03908116911614610bc75760405162461bcd60e51b815260040161028b90611833565b6001600160a01b038116610bed5760405162461bcd60e51b815260040161028b90611724565b600080546040516001600160a01b03808516939216917f8be0079c531659141344cd1fd0a4f28419497f9722a3daafe3b4186f6b6457e091a3600080546001600160a01b0319166001600160a01b0392909216919091179055565b610c50610f8c565b6000546001600160a01b03908116911614610c7d5760405162461bcd60e51b815260040161028b90611833565b600180546001600160a01b0319166001600160a01b0392909216919091179055565b6001546001600160a01b03163314610cc95760405162461bcd60e51b815260040161028b906116cd565b6001600160a01b038116600090815260036020526040902054819060026000196101006001841615020190911604610d135760405162461bcd60e51b815260040161028b90611806565b60005b600254811015610efb57826001600160a01b031660028281548110610d3757fe5b6000918252602090912001546001600160a01b03161415610ef357600280546000198101908110610d6457fe5b600091825260209091200154600280546001600160a01b039092169183908110610d8a57fe5b9060005260206000200160006101000a8154816001600160a01b0302191690836001600160a01b031602179055506002805480610dc357fe5b600082815260208120820160001990810180546001600160a01b03191690559091019091555b6001600160a01b038416600090815260046020526040902054811015610ed1576001600160a01b038416600090815260046020526040902080547f422ab446a3ecfb6af9df8c42c16bbfe0fff9d710bc89b8b7185f9cb0ab71250b91869184908110610e5157fe5b600091825260208083206001600160a01b038a16845260038252604080852060049093529093208054929093019260019091019186908110610e8f57fe5b90600052602060002001604051610ea691906114f6565b90815260405190819003602001812054610ec19392916115de565b60405180910390a1600101610de9565b506001600160a01b0383166000908152600460205260408120610ef391611093565b600101610d16565b506001600160a01b038216600090815260036020526040812090610f1f82826110b4565b50507f26dc9cb8cd5f6397fbef7cf9dd1f32cafa0c6c1181fbd386957ebc8152c4b7c282604051610f509190611566565b60405180910390a15050565b6001600160a01b031660009081526003602052604090205460026001821615610100026000190190911604151590565b3390565b828054600181600116156101000203166002900490600052602060002090601f016020900481019282601f10610fd157805160ff1916838001178555610ffe565b82800160010185558215610ffe579182015b82811115610ffe578251825591602001919060010190610fe3565b5061100a9291506110f4565b5090565b828054600181600116156101000203166002900490600052602060002090601f016020900481019282601f1061104f5782800160ff19823516178555610ffe565b82800160010185558215610ffe579182015b82811115610ffe578235825591602001919060010190611061565b604080518082019091526000808252602082015290565b50805460008255906000526020600020908101906110b19190611109565b50565b50805460018160011615610100020316600290046000825580601f106110da57506110b1565b601f0160209004906000526020600020908101906110b191905b5b8082111561100a57600081556001016110f5565b8082111561100a57600061111d82826110b4565b50600101611109565b80356001600160a01b038116811461113d57600080fd5b92915050565b600082601f830112611153578081fd5b81356111666111618261188e565b611868565b818152915060208083019084810160408085028701830188101561118957600080fd5b60005b858110156111b05761119e898461126a565b8552938301939181019160010161118c565b50505050505092915050565b60008083601f8401126111cd578182fd5b5081356001600160401b038111156111e3578182fd5b6020830191508360208285010111156111fb57600080fd5b9250929050565b600082601f830112611212578081fd5b81356001600160401b03811115611227578182fd5b61123a601f8201601f1916602001611868565b915080825283602082850101111561125157600080fd5b8060208401602084013760009082016020015292915050565b60006040828403121561127b578081fd5b6112856040611868565b9050813581526020820135602082015292915050565b6000602082840312156112ac578081fd5b6112b68383611126565b9392505050565b6000806000604084860312156112d1578182fd5b6112db8585611126565b925060208401356001600160401b038111156112f5578283fd5b611301868287016111bc565b9497909650939450505050565b600080600080600060808688031215611325578081fd5b61132f8787611126565b94506020808701356001600160401b038082111561134b578384fd5b6113578a838b016111bc565b9097509550604089013591508082111561136f578384fd5b818901915089601f830112611382578384fd5b81356113906111618261188e565b81815284810190848601875b848110156113c5576113b38f8984358a0101611202565b8452928701929087019060010161139c565b5090975050505060608901359250808311156113df578384fd5b50506113ed88828901611143565b9150509295509295909350565b6000806000806080858703121561140f578384fd5b6114198686611126565b935060208501356001600160401b03811115611433578384fd5b61143f878288016111bc565b90945092506114539050866040870161126a565b905092959194509250565b60008060408385031215611470578182fd5b61147a8484611126565b946020939093013593505050565b600060208284031215611499578081fd5b5035919050565b60008284528282602086013780602084860101526020601f19601f85011685010190509392505050565b6000828483379101908152919050565b600082516114ec8184602087016118b9565b9190910192915050565b6000808354600180821660008114611515576001811461152c5761155b565b60ff198316865260028304607f168601935061155b565b600283048786526020808720875b838110156115535781548a82015290850190820161153a565b505050860193505b509195945050505050565b6001600160a01b0391909116815260200190565b6001600160a01b038416815260406020820181905260009061159f90830184866114a0565b95945050505050565b6001600160a01b03851681526060602082018190526000906115cd90830185876114a0565b905082604083015295945050505050565b60006060820160018060a01b0386168352602060608185015282865460018082166000811461161457600181146116325761166a565b60028304607f16865260ff198316608089015260a08801935061166a565b600283048087526116428b6118ad565b885b828110156116605781548b820160800152908401908701611644565b8a01608001955050505b505050809350505050826040830152949350505050565b901515815260200190565b918252602082015260400190565b60006020825282518060208401526116b98160408501602087016118b9565b601f01601f19169190910160400192915050565b60208082526037908201527f4f6e6c79207468652063757272656e74206f63746f6261792076657273696f6e6040820152761031b0b7103ab9b2903a3434b990333ab731ba34b7b71760491b606082015260800190565b60208082526026908201527f4f776e61626c653a206e6577206f776e657220697320746865207a65726f206160408201526564647265737360d01b606082015260800190565b6020808252601590820152744f7261636c6520616c72656164792065786973747360581b604082015260600190565b6020808252602c908201527f5f6a6f624e616d657320616e64205f6a6f62732073686f756c64206265206f6660408201526b040e6c2daca40d8cadccee8d60a31b606082015260800190565b6020808252600790820152664e6f204a6f627360c81b604082015260600190565b602080825260139082015272556e72656769737465726564206f7261636c6560681b604082015260600190565b6020808252818101527f4f776e61626c653a2063616c6c6572206973206e6f7420746865206f776e6572604082015260600190565b6040518181016001600160401b038111828210171561188657600080fd5b604052919050565b60006001600160401b038211156118a3578081fd5b5060209081020190565b60009081526020902090565b60005b838110156118d45781810151838201526020016118bc565b838111156118e3576000848401525b5050505056fea26469706673582212209ec9c69b1b3c74bb57568ebfc9a0b083a5ee84345ada37e9c8ea966c1a1741ab64736f6c634300060c0033",
  "immutableReferences": {},
  "source": "// SPDX-License-Identifier: MIT\npragma solidity ^0.6.0;\npragma experimental ABIEncoderV2;\n\nimport './OctobayStorage.sol';\n\n// This contract acts as Octobay's oracle storage.\ncontract OracleStorage is OctobayStorage {\n\n  struct Job {\n    bytes32 id;\n    uint256 fee;\n  }\n\n  struct Oracle {\n    string name;\n    mapping(string => Job) jobs;\n  }\n\n  address[] public registeredOracles;\n  mapping(address => Oracle) public oracles;\n  mapping(address => string[]) public oracleJobNames;\n\n  event OracleAddedEvent(address oracle, string name);\n  event OracleRemovedEvent(address oracle);\n  event OracleNameChangedEvent(address oracle, string name);\n  event OracleJobAddedEvent(address oracle, string name, bytes32 id);\n  event OracleJobRemovedEvent(address oracle, string name, bytes32 id);\n\n  modifier onlyRegisteredOracle(address _oracle) {\n    require(bytes(oracles[_oracle].name).length > 0, \"Unregistered oracle\");\n    _;\n  }\n\n  function addOracle(\n    address _oracle,\n    string calldata _name,\n    string[] memory _jobNames,\n    Job[] memory _jobs\n  ) external onlyOctobay {\n    require(bytes(oracles[_oracle].name).length == 0, 'Oracle already exists');\n    require(_jobs.length > 0, 'No Jobs');\n    require(_jobNames.length == _jobs.length, '_jobNames and _jobs should be of same length');\n\n    oracles[_oracle] = Oracle({\n        name: _name\n    });\n    for(uint i = 0; i < _jobNames.length; i++) {\n        oracles[_oracle].jobs[_jobNames[i]] = _jobs[i];   // modifies the stroage\n        oracleJobNames[_oracle].push(_jobNames[i]);\n    }\n    registeredOracles.push(_oracle);\n\n    emit OracleAddedEvent(_oracle, _name);\n  }\n\n  function removeOracle(address _oracle) external onlyOctobay onlyRegisteredOracle(_oracle) {\n      for(uint i = 0; i < registeredOracles.length; i++ ) {\n          if(registeredOracles[i] == _oracle) {\n              registeredOracles[i] = registeredOracles[registeredOracles.length -1];\n              registeredOracles.pop();\n              for(uint j = 0; j < oracleJobNames[_oracle].length; j++ ) {\n                emit OracleJobRemovedEvent(_oracle, oracleJobNames[_oracle][j], oracles[_oracle].jobs[oracleJobNames[_oracle][j]].id);\n              }\n              delete oracleJobNames[_oracle];\n          }\n      }\n      delete oracles[_oracle];\n      emit OracleRemovedEvent(_oracle);\n  }\n\n  function changeOracleName(address _oracle, string calldata _name) external onlyOctobay onlyRegisteredOracle(_oracle) {\n      oracles[_oracle].name = _name;\n      emit OracleNameChangedEvent(_oracle, _name);\n  }\n\n  function addOracleJob(address _oracle, string calldata _jobName, Job memory _job) external onlyOctobay onlyRegisteredOracle(_oracle) {\n      oracles[_oracle].jobs[_jobName] = _job;\n      emit OracleJobAddedEvent(_oracle, _jobName, _job.id);\n  }\n\n  function removeOracleJob(address _oracle, string calldata _jobName) external onlyOctobay onlyRegisteredOracle(_oracle) {\n      emit OracleJobRemovedEvent(_oracle, _jobName, oracles[_oracle].jobs[_jobName].id);\n      delete oracles[_oracle].jobs[_jobName];\n  }\n\n  function getOracleName(address _oracle) external view returns (string memory) {\n      return oracles[_oracle].name;\n  }\n\n  function getOracleJob(address _oracle, string calldata _job) external view returns (bytes32, uint256) {\n      Job memory job = oracles[_oracle].jobs[_job];\n      return (job.id, job.fee);\n  }\n\n  function oracleExists(address _oracle) public view returns(bool) {\n    return bytes(oracles[_oracle].name).length > 0;\n  }\n\n  function oracleJobExists(address _oracle, string calldata _jobName) public view returns(bool) {\n    return oracles[_oracle].jobs[_jobName].id > 0;\n  }\n\n}",
  "sourcePath": "/home/mkt/Projects/octobay/contracts/contracts/OracleStorage.sol",
  "compiler": {
    "name": "solc",
    "version": "0.6.12+commit.27d51765.Emscripten.clang"
  },
  "schemaVersion": "3.3.4",
  "updatedAt": "2021-05-31T23:15:15.031Z",
  "devdoc": {
    "kind": "dev",
    "methods": {
      "owner()": {
        "details": "Returns the address of the current owner."
      },
      "renounceOwnership()": {
        "details": "Leaves the contract without owner. It will not be possible to call `onlyOwner` functions anymore. Can only be called by the current owner. NOTE: Renouncing ownership will leave the contract without an owner, thereby removing any functionality that is only available to the owner."
      },
      "transferOwnership(address)": {
        "details": "Transfers ownership of the contract to a new account (`newOwner`). Can only be called by the current owner."
      }
    },
    "version": 1
  },
  "userdoc": {
    "kind": "user",
    "methods": {},
    "version": 1
  }
}