{
  "contractName": "UserAddressStorage",
  "abi": [
    {
      "anonymous": false,
      "inputs": [
        {
          "indexed": true,
          "internalType": "address",
          "name": "previousOwner",
          "type": "address"
        },
        {
          "indexed": true,
          "internalType": "address",
          "name": "newOwner",
          "type": "address"
        }
      ],
      "name": "OwnershipTransferred",
      "type": "event"
    },
    {
      "anonymous": false,
      "inputs": [
        {
          "indexed": false,
          "internalType": "string",
          "name": "userId",
          "type": "string"
        },
        {
          "indexed": false,
          "internalType": "bytes32",
          "name": "addressName",
          "type": "bytes32"
        },
        {
          "indexed": false,
          "internalType": "address",
          "name": "ethAddress",
          "type": "address"
        }
      ],
      "name": "UserAddressAddedEvent",
      "type": "event"
    },
    {
      "anonymous": false,
      "inputs": [
        {
          "indexed": false,
          "internalType": "string",
          "name": "userId",
          "type": "string"
        },
        {
          "indexed": false,
          "internalType": "bytes32",
          "name": "addressName",
          "type": "bytes32"
        },
        {
          "indexed": false,
          "internalType": "address",
          "name": "ethAddress",
          "type": "address"
        }
      ],
      "name": "UserAddressRemovedEvent",
      "type": "event"
    },
    {
      "inputs": [
        {
          "internalType": "string",
          "name": "",
          "type": "string"
        },
        {
          "internalType": "bytes32",
          "name": "",
          "type": "bytes32"
        }
      ],
      "name": "addresses",
      "outputs": [
        {
          "internalType": "address",
          "name": "",
          "type": "address"
        }
      ],
      "stateMutability": "view",
      "type": "function"
    },
    {
      "inputs": [],
      "name": "octobay",
      "outputs": [
        {
          "internalType": "address",
          "name": "",
          "type": "address"
        }
      ],
      "stateMutability": "view",
      "type": "function"
    },
    {
      "inputs": [],
      "name": "owner",
      "outputs": [
        {
          "internalType": "address",
          "name": "",
          "type": "address"
        }
      ],
      "stateMutability": "view",
      "type": "function"
    },
    {
      "inputs": [],
      "name": "renounceOwnership",
      "outputs": [],
      "stateMutability": "nonpayable",
      "type": "function"
    },
    {
      "inputs": [
        {
          "internalType": "address",
          "name": "_octobay",
          "type": "address"
        }
      ],
      "name": "setOctobay",
      "outputs": [],
      "stateMutability": "nonpayable",
      "type": "function"
    },
    {
      "inputs": [
        {
          "internalType": "address",
          "name": "newOwner",
          "type": "address"
        }
      ],
      "name": "transferOwnership",
      "outputs": [],
      "stateMutability": "nonpayable",
      "type": "function"
    },
    {
      "inputs": [
        {
          "internalType": "address",
          "name": "",
          "type": "address"
        }
      ],
      "name": "userIdsByAddress",
      "outputs": [
        {
          "internalType": "string",
          "name": "",
          "type": "string"
        }
      ],
      "stateMutability": "view",
      "type": "function"
    },
    {
      "inputs": [
        {
          "internalType": "string",
          "name": "_userId",
          "type": "string"
        },
        {
          "internalType": "bytes32",
          "name": "_addressName",
          "type": "bytes32"
        },
        {
          "internalType": "address",
          "name": "_address",
          "type": "address"
        }
      ],
      "name": "addUserAddress",
      "outputs": [],
      "stateMutability": "nonpayable",
      "type": "function"
    },
    {
      "inputs": [
        {
          "internalType": "string",
          "name": "_userId",
          "type": "string"
        },
        {
          "internalType": "bytes32",
          "name": "_addressName",
          "type": "bytes32"
        }
      ],
      "name": "deleteUserAddress",
      "outputs": [],
      "stateMutability": "nonpayable",
      "type": "function"
    }
  ],
  "bytecode": "0x608060405234801561001057600080fd5b50600061001b61006a565b600080546001600160a01b0319166001600160a01b0383169081178255604051929350917f8be0079c531659141344cd1fd0a4f28419497f9722a3daafe3b4186f6b6457e0908290a35061006e565b3390565b610ae28061007d6000396000f3fe608060405234801561001057600080fd5b50600436106100835760003560e01c80630693f961146100885780635d8f4b6d146100a6578063715018a6146100bb5780638da5cb5b146100c3578063989734a4146100cb578063c155f9bd146100de578063f2fde38b146100fe578063f380e05c14610111578063fa31954614610124575b600080fd5b610090610137565b60405161009d91906108cd565b60405180910390f35b6100b96100b4366004610777565b610146565b005b6100b961027b565b6100906102fa565b6100b96100d93660046107c1565b610309565b6100f16100ec366004610755565b610435565b60405161009d919061092a565b6100b961010c366004610755565b6104d0565b6100b961011f366004610755565b610586565b61009061013236600461081d565b6105dd565b6001546001600160a01b031681565b6001546001600160a01b031633146101795760405162461bcd60e51b81526004016101709061097d565b60405180910390fd5b7f062c1dcc52d0b432cfe864c9d8634207b289f0dbb61fa317013813912a57f90b838383600287876040516101af9291906108bd565b9081526040805191829003602090810183206000898152915220546101e2949392916001600160a01b03909116906108e1565b60405180910390a160036000600285856040516102009291906108bd565b90815260408051602092819003830190206000868152908352818120546001600160a01b03168452918301939093529101812061023c91610617565b6002838360405161024e9291906108bd565b90815260408051602092819003830190206000938452909152902080546001600160a01b03191690555050565b610283610613565b6000546001600160a01b039081169116146102b05760405162461bcd60e51b815260040161017090610a1a565b600080546040516001600160a01b03909116907f8be0079c531659141344cd1fd0a4f28419497f9722a3daafe3b4186f6b6457e0908390a3600080546001600160a01b0319169055565b6000546001600160a01b031690565b6001546001600160a01b031633146103335760405162461bcd60e51b81526004016101709061097d565b60006001600160a01b0316600285856040516103509291906108bd565b9081526040805160209281900383019020600086815292529020546001600160a01b0316146103915760405162461bcd60e51b815260040161017090610a4f565b80600285856040516103a49291906108bd565b9081526040805160209281900383019020600086815290835281812080546001600160a01b0319166001600160a01b039586161790559284168352600390915290206103f190858561065e565b507f2bfde0a0e5035ae9cb595bd148a52dc140c2d07428f024eaed0a8a018a922b448484848460405161042794939291906108e1565b60405180910390a150505050565b60036020908152600091825260409182902080548351601f6002600019610100600186161502019093169290920491820184900484028101840190945280845290918301828280156104c85780601f1061049d576101008083540402835291602001916104c8565b820191906000526020600020905b8154815290600101906020018083116104ab57829003601f168201915b505050505081565b6104d8610613565b6000546001600160a01b039081169116146105055760405162461bcd60e51b815260040161017090610a1a565b6001600160a01b03811661052b5760405162461bcd60e51b8152600401610170906109d4565b600080546040516001600160a01b03808516939216917f8be0079c531659141344cd1fd0a4f28419497f9722a3daafe3b4186f6b6457e091a3600080546001600160a01b0319166001600160a01b0392909216919091179055565b61058e610613565b6000546001600160a01b039081169116146105bb5760405162461bcd60e51b815260040161017090610a1a565b600180546001600160a01b0319166001600160a01b0392909216919091179055565b8151602081840181018051600282529282019482019490942091909352909152600090815260409020546001600160a01b031681565b3390565b50805460018160011615610100020316600290046000825580601f1061063d575061065b565b601f01602090049060005260206000209081019061065b91906106dc565b50565b828054600181600116156101000203166002900490600052602060002090601f016020900481019282601f1061069f5782800160ff198235161785556106cc565b828001600101855582156106cc579182015b828111156106cc5782358255916020019190600101906106b1565b506106d89291506106dc565b5090565b5b808211156106d857600081556001016106dd565b80356001600160a01b038116811461070857600080fd5b92915050565b60008083601f84011261071f578182fd5b50813567ffffffffffffffff811115610736578182fd5b60208301915083602082850101111561074e57600080fd5b9250929050565b600060208284031215610766578081fd5b61077083836106f1565b9392505050565b60008060006040848603121561078b578182fd5b833567ffffffffffffffff8111156107a1578283fd5b6107ad8682870161070e565b909790965060209590950135949350505050565b600080600080606085870312156107d6578081fd5b843567ffffffffffffffff8111156107ec578182fd5b6107f88782880161070e565b9095509350506020850135915061081286604087016106f1565b905092959194509250565b6000806040838503121561082f578182fd5b823567ffffffffffffffff80821115610846578384fd5b818501915085601f830112610859578384fd5b813581811115610867578485fd5b6040516020601f8301601f1916820181018481118382101715610888578788fd5b604052828252848301810189101561089e578687fd5b8281860182840137918101820195909552939694909301359450505050565b6000828483379101908152919050565b6001600160a01b0391909116815260200190565b60006060825284606083015284866080840137608085830181019190915260208201939093526001600160a01b03919091166040820152601f909201601f191690910101919050565b6000602080835283518082850152825b818110156109565785810183015185820160400152820161093a565b818111156109675783604083870101525b50601f01601f1916929092016040019392505050565b60208082526037908201527f4f6e6c79207468652063757272656e74206f63746f6261792076657273696f6e6040820152761031b0b7103ab9b2903a3434b990333ab731ba34b7b71760491b606082015260800190565b60208082526026908201527f4f776e61626c653a206e6577206f776e657220697320746865207a65726f206160408201526564647265737360d01b606082015260800190565b6020808252818101527f4f776e61626c653a2063616c6c6572206973206e6f7420746865206f776e6572604082015260600190565b6020808252603e908201527f416e206164647265737320776974682074686973206e616d6520616c7265616460408201527f792065787369747320666f7220746869732047697448756220757365722e000060608201526080019056fea26469706673582212207f56d21493696f0e2f2b74daf8822e36ab518797dd0734acdfe7cccc359ecbd864736f6c634300060c0033",
  "immutableReferences": {},
  "source": "// SPDX-License-Identifier: MIT\npragma solidity ^0.6.0;\npragma experimental ABIEncoderV2;\n\nimport './OctobayStorage.sol';\n\n// This contract acts as Octobay's user storage.\ncontract UserAddressStorage is OctobayStorage {\n  // GitHub user's eth addresses\n  // A user can have multiple (named) addresses.\n  // GitHub GraphQL ID => (name => address)\n  mapping(string => mapping(bytes32 => address)) public addresses;\n  mapping(address => string) public userIdsByAddress;\n\n  event UserAddressAddedEvent(string userId, bytes32 addressName, address ethAddress);\n  event UserAddressRemovedEvent(string userId, bytes32 addressName, address ethAddress);\n\n  function addUserAddress(\n    string calldata _userId,\n    bytes32 _addressName,\n    address _address\n  ) public onlyOctobay {\n    require(addresses[_userId][_addressName] == address(0), 'An address with this name already exsits for this GitHub user.');\n    addresses[_userId][_addressName] = _address;\n    userIdsByAddress[_address] = _userId;\n\n    emit UserAddressAddedEvent(\n      _userId,\n      _addressName,\n      _address\n    );\n  }\n\n  function deleteUserAddress(\n    string calldata _userId,\n    bytes32 _addressName\n  ) public onlyOctobay {\n    emit UserAddressRemovedEvent(\n      _userId,\n      _addressName,\n      addresses[_userId][_addressName]\n    );\n\n    delete userIdsByAddress[addresses[_userId][_addressName]];\n    delete addresses[_userId][_addressName];\n  }\n}",
  "sourcePath": "/home/mkt/Projects/octobay/contracts/contracts/UserAddressStorage.sol",
  "compiler": {
    "name": "solc",
    "version": "0.6.12+commit.27d51765.Emscripten.clang"
  },
  "schemaVersion": "3.3.4",
  "updatedAt": "2021-05-31T23:15:15.040Z",
  "devdoc": {
    "kind": "dev",
    "methods": {
      "owner()": {
        "details": "Returns the address of the current owner."
      },
      "renounceOwnership()": {
        "details": "Leaves the contract without owner. It will not be possible to call `onlyOwner` functions anymore. Can only be called by the current owner. NOTE: Renouncing ownership will leave the contract without an owner, thereby removing any functionality that is only available to the owner."
      },
      "transferOwnership(address)": {
        "details": "Transfers ownership of the contract to a new account (`newOwner`). Can only be called by the current owner."
      }
    },
    "version": 1
  },
  "userdoc": {
    "kind": "user",
    "methods": {},
    "version": 1
  }
}